{"project/contracts/DroneContract.sol":{"DroneContract":{"abi":[{"anonymous":false,"inputs":[{"indexed":true,"internalType":"uint256","name":"id","type":"uint256"},{"indexed":false,"internalType":"string","name":"model_type","type":"string"},{"indexed":false,"internalType":"int256","name":"zone","type":"int256"}],"name":"DroneCreated","type":"event"},{"anonymous":false,"inputs":[{"indexed":true,"internalType":"uint256","name":"id","type":"uint256"}],"name":"DroneDeleted","type":"event"},{"anonymous":false,"inputs":[{"indexed":true,"internalType":"uint256","name":"id","type":"uint256"},{"indexed":false,"internalType":"string","name":"model_type","type":"string"},{"indexed":false,"internalType":"int256","name":"zone","type":"int256"}],"name":"DroneUpdated","type":"event"},{"inputs":[{"internalType":"string","name":"_model_type","type":"string"},{"internalType":"int256","name":"_zone","type":"int256"}],"name":"createDrone","outputs":[],"stateMutability":"nonpayable","type":"function"},{"inputs":[{"internalType":"uint256","name":"_id","type":"uint256"}],"name":"deleteDrone","outputs":[],"stateMutability":"nonpayable","type":"function"},{"inputs":[{"internalType":"uint256","name":"","type":"uint256"}],"name":"drones","outputs":[{"internalType":"uint256","name":"id","type":"uint256"},{"internalType":"string","name":"model_type","type":"string"},{"internalType":"int256","name":"zone","type":"int256"},{"internalType":"bool","name":"exists","type":"bool"}],"stateMutability":"view","type":"function"},{"inputs":[{"internalType":"uint256","name":"_id","type":"uint256"}],"name":"getDrone","outputs":[{"components":[{"internalType":"uint256","name":"id","type":"uint256"},{"internalType":"string","name":"model_type","type":"string"},{"internalType":"int256","name":"zone","type":"int256"},{"internalType":"bool","name":"exists","type":"bool"}],"internalType":"struct DroneContract.Drone","name":"","type":"tuple"}],"stateMutability":"view","type":"function"},{"inputs":[],"name":"getDrones","outputs":[{"components":[{"internalType":"uint256","name":"id","type":"uint256"},{"internalType":"string","name":"model_type","type":"string"},{"internalType":"int256","name":"zone","type":"int256"},{"internalType":"bool","name":"exists","type":"bool"}],"internalType":"struct DroneContract.Drone[]","name":"","type":"tuple[]"}],"stateMutability":"view","type":"function"},{"inputs":[{"internalType":"int256","name":"_zone","type":"int256"}],"name":"getDronesByZone","outputs":[{"components":[{"internalType":"uint256","name":"id","type":"uint256"},{"internalType":"string","name":"model_type","type":"string"},{"internalType":"int256","name":"zone","type":"int256"},{"internalType":"bool","name":"exists","type":"bool"}],"internalType":"struct DroneContract.Drone[]","name":"","type":"tuple[]"}],"stateMutability":"view","type":"function"},{"inputs":[],"name":"nextId","outputs":[{"internalType":"uint256","name":"","type":"uint256"}],"stateMutability":"view","type":"function"},{"inputs":[{"internalType":"uint256","name":"_id","type":"uint256"},{"internalType":"string","name":"_model_type","type":"string"},{"internalType":"int256","name":"_zone","type":"int256"}],"name":"updateDrone","outputs":[],"stateMutability":"nonpayable","type":"function"}],"evm":{"bytecode":{"linkReferences":{},"object":"6080604052348015600e575f80fd5b506111128061001c5f395ff3fe608060405234801561000f575f80fd5b5060043610610085575f3560e01c8063d7c7a2ba11610058578063d7c7a2ba146100f6578063dbd1be7714610109578063ed88eb6d14610129578063f6e760981461013c575f80fd5b806307d5ebf514610089578063276f5038146100a757806361b8ce8c146100bc5780639341bc00146100d3575b5f80fd5b61009161014f565b60405161009e9190610c9e565b60405180910390f35b6100ba6100b5366004610da0565b61036d565b005b6100c560015481565b60405190815260200161009e565b6100e66100e1366004610de2565b61061b565b60405161009e9493929190610df9565b6100ba610104366004610e29565b6106de565b61011c610117366004610de2565b6107ab565b60405161009e9190610e76565b6100ba610137366004610de2565b610908565b61009161014a366004610de2565b6109b9565b60605f805b5f548110156101a0575f818154811061016f5761016f610e8f565b5f91825260209091206003600490920201015460ff1615610198578161019481610ea3565b9250505b600101610154565b505f8167ffffffffffffffff8111156101bb576101bb610d01565b60405190808252806020026020018201604052801561021657816020015b61020360405180608001604052805f8152602001606081526020015f81526020015f151581525090565b8152602001906001900390816101d95790505b5090505f805b5f54811015610364575f818154811061023757610237610e8f565b5f91825260209091206003600490920201015460ff161561035c575f818154811061026457610264610e8f565b905f5260205f2090600402016040518060800160405290815f820154815260200160018201805461029490610ec7565b80601f01602080910402602001604051908101604052809291908181526020018280546102c090610ec7565b801561030b5780601f106102e25761010080835404028352916020019161030b565b820191905f5260205f20905b8154815290600101906020018083116102ee57829003601f168201915b50505091835250506002820154602082015260039091015460ff161515604090910152835184908490811061034257610342610e8f565b6020026020010181905250818061035890610ea3565b9250505b60010161021c565b50909392505050565b5f5b5f54811015610510575f818154811061038a5761038a610e8f565b5f91825260209091206003600490920201015460ff1680156104175750826040516020016103b89190610eff565b604051602081830303815290604052805190602001205f82815481106103e0576103e0610e8f565b905f5260205f2090600402016001016040516020016103ff9190610f15565b60405160208183030381529060405280519060200120145b801561047457506040516715195c9b5a5b985b60c21b6020820152602801604051602081830303815290604052805190602001208360405160200161045c9190610eff565b60405160208183030381529060405280519060200120145b80156104a05750815f828154811061048e5761048e610e8f565b905f5260205f20906004020160020154145b156105085760405162461bcd60e51b815260206004820152602d60248201527f41207465726d696e616c2064726f6e6520616c7265616479206578697374732060448201526c34b7103a3434b9903d37b7329760991b60648201526084015b60405180910390fd5b60010161036f565b506040805160808101825260018054825260208201858152928201849052606082018190525f805491820181558052815160049091027f290decd9548b62a8d60345a988386fc84ba6bc95484008f6362f93160ef3e56381019182559251919290917f290decd9548b62a8d60345a988386fc84ba6bc95484008f6362f93160ef3e564909101906105a19082610fd2565b5060408281015160028301556060909201516003909101805460ff191691151591909117905560015490517f6cc4ed91f20ea27eda237a37a11e00cb1e9e8cc036186b136f63b5dd811b64b5906105fb908590859061108d565b60405180910390a260018054905f61061283610ea3565b91905055505050565b5f8181548110610629575f80fd5b5f918252602090912060049091020180546001820180549193509061064d90610ec7565b80601f016020809104026020016040519081016040528092919081815260200182805461067990610ec7565b80156106c45780601f1061069b576101008083540402835291602001916106c4565b820191905f5260205f20905b8154815290600101906020018083116106a757829003601f168201915b50505050600283015460039093015491929160ff16905084565b6001548310801561071357505f83815481106106fc576106fc610e8f565b5f91825260209091206003600490920201015460ff165b61072f5760405162461bcd60e51b81526004016104ff906110ae565b5f80848154811061074257610742610e8f565b905f5260205f2090600402019050828160010190816107619190610fd2565b50818160020181905550837f84303538537fc260b1a75f003f2666ebee27ee671e3fde7c9f365c5557f0dfe9848460405161079d92919061108d565b60405180910390a250505050565b6107d560405180608001604052805f8152602001606081526020015f81526020015f151581525090565b6001548210801561080a57505f82815481106107f3576107f3610e8f565b5f91825260209091206003600490920201015460ff165b6108265760405162461bcd60e51b81526004016104ff906110ae565b5f828154811061083857610838610e8f565b905f5260205f2090600402016040518060800160405290815f820154815260200160018201805461086890610ec7565b80601f016020809104026020016040519081016040528092919081815260200182805461089490610ec7565b80156108df5780601f106108b6576101008083540402835291602001916108df565b820191905f5260205f20905b8154815290600101906020018083116108c257829003601f168201915b50505091835250506002820154602082015260039091015460ff16151560409091015292915050565b6001548110801561093d57505f818154811061092657610926610e8f565b5f91825260209091206003600490920201015460ff165b6109595760405162461bcd60e51b81526004016104ff906110ae565b5f80828154811061096c5761096c610e8f565b5f9182526020822060049190910201600301805460ff19169215159290921790915560405182917fa398f31db5e7963635c8e05cb7bdd246a84574c0b1671840aa00e069a9794b1291a250565b60605f805b5f54811015610a36575f81815481106109d9576109d9610e8f565b5f91825260209091206003600490920201015460ff168015610a1b5750835f8281548110610a0957610a09610e8f565b905f5260205f20906004020160020154145b15610a2e5781610a2a81610ea3565b9250505b6001016109be565b505f8167ffffffffffffffff811115610a5157610a51610d01565b604051908082528060200260200182016040528015610aac57816020015b610a9960405180608001604052805f8152602001606081526020015f81526020015f151581525090565b815260200190600190039081610a6f5790505b5090505f805b5f54811015610c26575f8181548110610acd57610acd610e8f565b5f91825260209091206003600490920201015460ff168015610b0f5750855f8281548110610afd57610afd610e8f565b905f5260205f20906004020160020154145b15610c1e575f8181548110610b2657610b26610e8f565b905f5260205f2090600402016040518060800160405290815f8201548152602001600182018054610b5690610ec7565b80601f0160208091040260200160405190810160405280929190818152602001828054610b8290610ec7565b8015610bcd5780601f10610ba457610100808354040283529160200191610bcd565b820191905f5260205f20905b815481529060010190602001808311610bb057829003601f168201915b50505091835250506002820154602082015260039091015460ff1615156040909101528351849084908110610c0457610c04610e8f565b60200260200101819052508180610c1a90610ea3565b9250505b600101610ab2565b5090949350505050565b5f81518084528060208401602086015e5f602082860101526020601f19601f83011685010191505092915050565b805182525f602082015160806020850152610c7c6080850182610c30565b9050604083015160408501526060830151151560608501528091505092915050565b5f602082016020835280845180835260408501915060408160051b8601019250602086015f5b82811015610cf557603f19878603018452610ce0858351610c5e565b94506020938401939190910190600101610cc4565b50929695505050505050565b634e487b7160e01b5f52604160045260245ffd5b5f82601f830112610d24575f80fd5b813567ffffffffffffffff811115610d3e57610d3e610d01565b604051601f8201601f19908116603f0116810167ffffffffffffffff81118282101715610d6d57610d6d610d01565b604052818152838201602001851015610d84575f80fd5b816020850160208301375f918101602001919091529392505050565b5f8060408385031215610db1575f80fd5b823567ffffffffffffffff811115610dc7575f80fd5b610dd385828601610d15565b95602094909401359450505050565b5f60208284031215610df2575f80fd5b5035919050565b848152608060208201525f610e116080830186610c30565b60408301949094525090151560609091015292915050565b5f805f60608486031215610e3b575f80fd5b83359250602084013567ffffffffffffffff811115610e58575f80fd5b610e6486828701610d15565b93969395505050506040919091013590565b602081525f610e886020830184610c5e565b9392505050565b634e487b7160e01b5f52603260045260245ffd5b5f60018201610ec057634e487b7160e01b5f52601160045260245ffd5b5060010190565b600181811c90821680610edb57607f821691505b602082108103610ef957634e487b7160e01b5f52602260045260245ffd5b50919050565b5f82518060208501845e5f920191825250919050565b5f808354610f2281610ec7565b600182168015610f395760018114610f4e57610f7b565b60ff1983168652811515820286019350610f7b565b865f5260205f205f5b83811015610f7357815488820152600190910190602001610f57565b505081860193505b509195945050505050565b601f821115610fcd57805f5260205f20601f840160051c81016020851015610fab5750805b601f840160051c820191505b81811015610fca575f8155600101610fb7565b50505b505050565b815167ffffffffffffffff811115610fec57610fec610d01565b61100081610ffa8454610ec7565b84610f86565b6020601f821160018114611032575f831561101b5750848201515b5f19600385901b1c1916600184901b178455610fca565b5f84815260208120601f198516915b828110156110615787850151825560209485019460019092019101611041565b508482101561107e57868401515f19600387901b60f8161c191681555b50505050600190811b01905550565b604081525f61109f6040830185610c30565b90508260208301529392505050565b602080825260149082015273111c9bdb9948191bd95cc81b9bdd08195e1a5cdd60621b60408201526060019056fea2646970667358221220f68364ee660e9fca00e8d0109572cfa73c3c1c5498c3de6eb09b761e72bcf42e64736f6c634300081a0033","opcodes":"PUSH1 0x80 PUSH1 0x40 MSTORE CALLVALUE DUP1 ISZERO PUSH1 0xE JUMPI PUSH0 DUP1 REVERT JUMPDEST POP PUSH2 0x1112 DUP1 PUSH2 0x1C PUSH0 CODECOPY PUSH0 RETURN INVALID PUSH1 0x80 PUSH1 0x40 MSTORE CALLVALUE DUP1 ISZERO PUSH2 0xF JUMPI PUSH0 DUP1 REVERT JUMPDEST POP PUSH1 0x4 CALLDATASIZE LT PUSH2 0x85 JUMPI PUSH0 CALLDATALOAD PUSH1 0xE0 SHR DUP1 PUSH4 0xD7C7A2BA GT PUSH2 0x58 JUMPI DUP1 PUSH4 0xD7C7A2BA EQ PUSH2 0xF6 JUMPI DUP1 PUSH4 0xDBD1BE77 EQ PUSH2 0x109 JUMPI DUP1 PUSH4 0xED88EB6D EQ PUSH2 0x129 JUMPI DUP1 PUSH4 0xF6E76098 EQ PUSH2 0x13C JUMPI PUSH0 DUP1 REVERT JUMPDEST DUP1 PUSH4 0x7D5EBF5 EQ PUSH2 0x89 JUMPI DUP1 PUSH4 0x276F5038 EQ PUSH2 0xA7 JUMPI DUP1 PUSH4 0x61B8CE8C EQ PUSH2 0xBC JUMPI DUP1 PUSH4 0x9341BC00 EQ PUSH2 0xD3 JUMPI JUMPDEST PUSH0 DUP1 REVERT JUMPDEST PUSH2 0x91 PUSH2 0x14F JUMP JUMPDEST PUSH1 0x40 MLOAD PUSH2 0x9E SWAP2 SWAP1 PUSH2 0xC9E JUMP JUMPDEST PUSH1 0x40 MLOAD DUP1 SWAP2 SUB SWAP1 RETURN JUMPDEST PUSH2 0xBA PUSH2 0xB5 CALLDATASIZE PUSH1 0x4 PUSH2 0xDA0 JUMP JUMPDEST PUSH2 0x36D JUMP JUMPDEST STOP JUMPDEST PUSH2 0xC5 PUSH1 0x1 SLOAD DUP2 JUMP JUMPDEST PUSH1 0x40 MLOAD SWAP1 DUP2 MSTORE PUSH1 0x20 ADD PUSH2 0x9E JUMP JUMPDEST PUSH2 0xE6 PUSH2 0xE1 CALLDATASIZE PUSH1 0x4 PUSH2 0xDE2 JUMP JUMPDEST PUSH2 0x61B JUMP JUMPDEST PUSH1 0x40 MLOAD PUSH2 0x9E SWAP5 SWAP4 SWAP3 SWAP2 SWAP1 PUSH2 0xDF9 JUMP JUMPDEST PUSH2 0xBA PUSH2 0x104 CALLDATASIZE PUSH1 0x4 PUSH2 0xE29 JUMP JUMPDEST PUSH2 0x6DE JUMP JUMPDEST PUSH2 0x11C PUSH2 0x117 CALLDATASIZE PUSH1 0x4 PUSH2 0xDE2 JUMP JUMPDEST PUSH2 0x7AB JUMP JUMPDEST PUSH1 0x40 MLOAD PUSH2 0x9E SWAP2 SWAP1 PUSH2 0xE76 JUMP JUMPDEST PUSH2 0xBA PUSH2 0x137 CALLDATASIZE PUSH1 0x4 PUSH2 0xDE2 JUMP JUMPDEST PUSH2 0x908 JUMP JUMPDEST PUSH2 0x91 PUSH2 0x14A CALLDATASIZE PUSH1 0x4 PUSH2 0xDE2 JUMP JUMPDEST PUSH2 0x9B9 JUMP JUMPDEST PUSH1 0x60 PUSH0 DUP1 JUMPDEST PUSH0 SLOAD DUP2 LT ISZERO PUSH2 0x1A0 JUMPI PUSH0 DUP2 DUP2 SLOAD DUP2 LT PUSH2 0x16F JUMPI PUSH2 0x16F PUSH2 0xE8F JUMP JUMPDEST PUSH0 SWAP2 DUP3 MSTORE PUSH1 0x20 SWAP1 SWAP2 KECCAK256 PUSH1 0x3 PUSH1 0x4 SWAP1 SWAP3 MUL ADD ADD SLOAD PUSH1 0xFF AND ISZERO PUSH2 0x198 JUMPI DUP2 PUSH2 0x194 DUP2 PUSH2 0xEA3 JUMP JUMPDEST SWAP3 POP POP JUMPDEST PUSH1 0x1 ADD PUSH2 0x154 JUMP JUMPDEST POP PUSH0 DUP2 PUSH8 0xFFFFFFFFFFFFFFFF DUP2 GT ISZERO PUSH2 0x1BB JUMPI PUSH2 0x1BB PUSH2 0xD01 JUMP JUMPDEST PUSH1 0x40 MLOAD SWAP1 DUP1 DUP3 MSTORE DUP1 PUSH1 0x20 MUL PUSH1 0x20 ADD DUP3 ADD PUSH1 0x40 MSTORE DUP1 ISZERO PUSH2 0x216 JUMPI DUP2 PUSH1 0x20 ADD JUMPDEST PUSH2 0x203 PUSH1 0x40 MLOAD DUP1 PUSH1 0x80 ADD PUSH1 0x40 MSTORE DUP1 PUSH0 DUP2 MSTORE PUSH1 0x20 ADD PUSH1 0x60 DUP2 MSTORE PUSH1 0x20 ADD PUSH0 DUP2 MSTORE PUSH1 0x20 ADD PUSH0 ISZERO ISZERO DUP2 MSTORE POP SWAP1 JUMP JUMPDEST DUP2 MSTORE PUSH1 0x20 ADD SWAP1 PUSH1 0x1 SWAP1 SUB SWAP1 DUP2 PUSH2 0x1D9 JUMPI SWAP1 POP JUMPDEST POP SWAP1 POP PUSH0 DUP1 JUMPDEST PUSH0 SLOAD DUP2 LT ISZERO PUSH2 0x364 JUMPI PUSH0 DUP2 DUP2 SLOAD DUP2 LT PUSH2 0x237 JUMPI PUSH2 0x237 PUSH2 0xE8F JUMP JUMPDEST PUSH0 SWAP2 DUP3 MSTORE PUSH1 0x20 SWAP1 SWAP2 KECCAK256 PUSH1 0x3 PUSH1 0x4 SWAP1 SWAP3 MUL ADD ADD SLOAD PUSH1 0xFF AND ISZERO PUSH2 0x35C JUMPI PUSH0 DUP2 DUP2 SLOAD DUP2 LT PUSH2 0x264 JUMPI PUSH2 0x264 PUSH2 0xE8F JUMP JUMPDEST SWAP1 PUSH0 MSTORE PUSH1 0x20 PUSH0 KECCAK256 SWAP1 PUSH1 0x4 MUL ADD PUSH1 0x40 MLOAD DUP1 PUSH1 0x80 ADD PUSH1 0x40 MSTORE SWAP1 DUP2 PUSH0 DUP3 ADD SLOAD DUP2 MSTORE PUSH1 0x20 ADD PUSH1 0x1 DUP3 ADD DUP1 SLOAD PUSH2 0x294 SWAP1 PUSH2 0xEC7 JUMP JUMPDEST DUP1 PUSH1 0x1F ADD PUSH1 0x20 DUP1 SWAP2 DIV MUL PUSH1 0x20 ADD PUSH1 0x40 MLOAD SWAP1 DUP2 ADD PUSH1 0x40 MSTORE DUP1 SWAP3 SWAP2 SWAP1 DUP2 DUP2 MSTORE PUSH1 0x20 ADD DUP3 DUP1 SLOAD PUSH2 0x2C0 SWAP1 PUSH2 0xEC7 JUMP JUMPDEST DUP1 ISZERO PUSH2 0x30B JUMPI DUP1 PUSH1 0x1F LT PUSH2 0x2E2 JUMPI PUSH2 0x100 DUP1 DUP4 SLOAD DIV MUL DUP4 MSTORE SWAP2 PUSH1 0x20 ADD SWAP2 PUSH2 0x30B JUMP JUMPDEST DUP3 ADD SWAP2 SWAP1 PUSH0 MSTORE PUSH1 0x20 PUSH0 KECCAK256 SWAP1 JUMPDEST DUP2 SLOAD DUP2 MSTORE SWAP1 PUSH1 0x1 ADD SWAP1 PUSH1 0x20 ADD DUP1 DUP4 GT PUSH2 0x2EE JUMPI DUP3 SWAP1 SUB PUSH1 0x1F AND DUP3 ADD SWAP2 JUMPDEST POP POP POP SWAP2 DUP4 MSTORE POP POP PUSH1 0x2 DUP3 ADD SLOAD PUSH1 0x20 DUP3 ADD MSTORE PUSH1 0x3 SWAP1 SWAP2 ADD SLOAD PUSH1 0xFF AND ISZERO ISZERO PUSH1 0x40 SWAP1 SWAP2 ADD MSTORE DUP4 MLOAD DUP5 SWAP1 DUP5 SWAP1 DUP2 LT PUSH2 0x342 JUMPI PUSH2 0x342 PUSH2 0xE8F JUMP JUMPDEST PUSH1 0x20 MUL PUSH1 0x20 ADD ADD DUP2 SWAP1 MSTORE POP DUP2 DUP1 PUSH2 0x358 SWAP1 PUSH2 0xEA3 JUMP JUMPDEST SWAP3 POP POP JUMPDEST PUSH1 0x1 ADD PUSH2 0x21C JUMP JUMPDEST POP SWAP1 SWAP4 SWAP3 POP POP POP JUMP JUMPDEST PUSH0 JUMPDEST PUSH0 SLOAD DUP2 LT ISZERO PUSH2 0x510 JUMPI PUSH0 DUP2 DUP2 SLOAD DUP2 LT PUSH2 0x38A JUMPI PUSH2 0x38A PUSH2 0xE8F JUMP JUMPDEST PUSH0 SWAP2 DUP3 MSTORE PUSH1 0x20 SWAP1 SWAP2 KECCAK256 PUSH1 0x3 PUSH1 0x4 SWAP1 SWAP3 MUL ADD ADD SLOAD PUSH1 0xFF AND DUP1 ISZERO PUSH2 0x417 JUMPI POP DUP3 PUSH1 0x40 MLOAD PUSH1 0x20 ADD PUSH2 0x3B8 SWAP2 SWAP1 PUSH2 0xEFF JUMP JUMPDEST PUSH1 0x40 MLOAD PUSH1 0x20 DUP2 DUP4 SUB SUB DUP2 MSTORE SWAP1 PUSH1 0x40 MSTORE DUP1 MLOAD SWAP1 PUSH1 0x20 ADD KECCAK256 PUSH0 DUP3 DUP2 SLOAD DUP2 LT PUSH2 0x3E0 JUMPI PUSH2 0x3E0 PUSH2 0xE8F JUMP JUMPDEST SWAP1 PUSH0 MSTORE PUSH1 0x20 PUSH0 KECCAK256 SWAP1 PUSH1 0x4 MUL ADD PUSH1 0x1 ADD PUSH1 0x40 MLOAD PUSH1 0x20 ADD PUSH2 0x3FF SWAP2 SWAP1 PUSH2 0xF15 JUMP JUMPDEST PUSH1 0x40 MLOAD PUSH1 0x20 DUP2 DUP4 SUB SUB DUP2 MSTORE SWAP1 PUSH1 0x40 MSTORE DUP1 MLOAD SWAP1 PUSH1 0x20 ADD KECCAK256 EQ JUMPDEST DUP1 ISZERO PUSH2 0x474 JUMPI POP PUSH1 0x40 MLOAD PUSH8 0x15195C9B5A5B985B PUSH1 0xC2 SHL PUSH1 0x20 DUP3 ADD MSTORE PUSH1 0x28 ADD PUSH1 0x40 MLOAD PUSH1 0x20 DUP2 DUP4 SUB SUB DUP2 MSTORE SWAP1 PUSH1 0x40 MSTORE DUP1 MLOAD SWAP1 PUSH1 0x20 ADD KECCAK256 DUP4 PUSH1 0x40 MLOAD PUSH1 0x20 ADD PUSH2 0x45C SWAP2 SWAP1 PUSH2 0xEFF JUMP JUMPDEST PUSH1 0x40 MLOAD PUSH1 0x20 DUP2 DUP4 SUB SUB DUP2 MSTORE SWAP1 PUSH1 0x40 MSTORE DUP1 MLOAD SWAP1 PUSH1 0x20 ADD KECCAK256 EQ JUMPDEST DUP1 ISZERO PUSH2 0x4A0 JUMPI POP DUP2 PUSH0 DUP3 DUP2 SLOAD DUP2 LT PUSH2 0x48E JUMPI PUSH2 0x48E PUSH2 0xE8F JUMP JUMPDEST SWAP1 PUSH0 MSTORE PUSH1 0x20 PUSH0 KECCAK256 SWAP1 PUSH1 0x4 MUL ADD PUSH1 0x2 ADD SLOAD EQ JUMPDEST ISZERO PUSH2 0x508 JUMPI PUSH1 0x40 MLOAD PUSH3 0x461BCD PUSH1 0xE5 SHL DUP2 MSTORE PUSH1 0x20 PUSH1 0x4 DUP3 ADD MSTORE PUSH1 0x2D PUSH1 0x24 DUP3 ADD MSTORE PUSH32 0x41207465726D696E616C2064726F6E6520616C72656164792065786973747320 PUSH1 0x44 DUP3 ADD MSTORE PUSH13 0x34B7103A3434B9903D37B73297 PUSH1 0x99 SHL PUSH1 0x64 DUP3 ADD MSTORE PUSH1 0x84 ADD JUMPDEST PUSH1 0x40 MLOAD DUP1 SWAP2 SUB SWAP1 REVERT JUMPDEST PUSH1 0x1 ADD PUSH2 0x36F JUMP JUMPDEST POP PUSH1 0x40 DUP1 MLOAD PUSH1 0x80 DUP2 ADD DUP3 MSTORE PUSH1 0x1 DUP1 SLOAD DUP3 MSTORE PUSH1 0x20 DUP3 ADD DUP6 DUP2 MSTORE SWAP3 DUP3 ADD DUP5 SWAP1 MSTORE PUSH1 0x60 DUP3 ADD DUP2 SWAP1 MSTORE PUSH0 DUP1 SLOAD SWAP2 DUP3 ADD DUP2 SSTORE DUP1 MSTORE DUP2 MLOAD PUSH1 0x4 SWAP1 SWAP2 MUL PUSH32 0x290DECD9548B62A8D60345A988386FC84BA6BC95484008F6362F93160EF3E563 DUP2 ADD SWAP2 DUP3 SSTORE SWAP3 MLOAD SWAP2 SWAP3 SWAP1 SWAP2 PUSH32 0x290DECD9548B62A8D60345A988386FC84BA6BC95484008F6362F93160EF3E564 SWAP1 SWAP2 ADD SWAP1 PUSH2 0x5A1 SWAP1 DUP3 PUSH2 0xFD2 JUMP JUMPDEST POP PUSH1 0x40 DUP3 DUP2 ADD MLOAD PUSH1 0x2 DUP4 ADD SSTORE PUSH1 0x60 SWAP1 SWAP3 ADD MLOAD PUSH1 0x3 SWAP1 SWAP2 ADD DUP1 SLOAD PUSH1 0xFF NOT AND SWAP2 ISZERO ISZERO SWAP2 SWAP1 SWAP2 OR SWAP1 SSTORE PUSH1 0x1 SLOAD SWAP1 MLOAD PUSH32 0x6CC4ED91F20EA27EDA237A37A11E00CB1E9E8CC036186B136F63B5DD811B64B5 SWAP1 PUSH2 0x5FB SWAP1 DUP6 SWAP1 DUP6 SWAP1 PUSH2 0x108D JUMP JUMPDEST PUSH1 0x40 MLOAD DUP1 SWAP2 SUB SWAP1 LOG2 PUSH1 0x1 DUP1 SLOAD SWAP1 PUSH0 PUSH2 0x612 DUP4 PUSH2 0xEA3 JUMP JUMPDEST SWAP2 SWAP1 POP SSTORE POP POP POP JUMP JUMPDEST PUSH0 DUP2 DUP2 SLOAD DUP2 LT PUSH2 0x629 JUMPI PUSH0 DUP1 REVERT JUMPDEST PUSH0 SWAP2 DUP3 MSTORE PUSH1 0x20 SWAP1 SWAP2 KECCAK256 PUSH1 0x4 SWAP1 SWAP2 MUL ADD DUP1 SLOAD PUSH1 0x1 DUP3 ADD DUP1 SLOAD SWAP2 SWAP4 POP SWAP1 PUSH2 0x64D SWAP1 PUSH2 0xEC7 JUMP JUMPDEST DUP1 PUSH1 0x1F ADD PUSH1 0x20 DUP1 SWAP2 DIV MUL PUSH1 0x20 ADD PUSH1 0x40 MLOAD SWAP1 DUP2 ADD PUSH1 0x40 MSTORE DUP1 SWAP3 SWAP2 SWAP1 DUP2 DUP2 MSTORE PUSH1 0x20 ADD DUP3 DUP1 SLOAD PUSH2 0x679 SWAP1 PUSH2 0xEC7 JUMP JUMPDEST DUP1 ISZERO PUSH2 0x6C4 JUMPI DUP1 PUSH1 0x1F LT PUSH2 0x69B JUMPI PUSH2 0x100 DUP1 DUP4 SLOAD DIV MUL DUP4 MSTORE SWAP2 PUSH1 0x20 ADD SWAP2 PUSH2 0x6C4 JUMP JUMPDEST DUP3 ADD SWAP2 SWAP1 PUSH0 MSTORE PUSH1 0x20 PUSH0 KECCAK256 SWAP1 JUMPDEST DUP2 SLOAD DUP2 MSTORE SWAP1 PUSH1 0x1 ADD SWAP1 PUSH1 0x20 ADD DUP1 DUP4 GT PUSH2 0x6A7 JUMPI DUP3 SWAP1 SUB PUSH1 0x1F AND DUP3 ADD SWAP2 JUMPDEST POP POP POP POP PUSH1 0x2 DUP4 ADD SLOAD PUSH1 0x3 SWAP1 SWAP4 ADD SLOAD SWAP2 SWAP3 SWAP2 PUSH1 0xFF AND SWAP1 POP DUP5 JUMP JUMPDEST PUSH1 0x1 SLOAD DUP4 LT DUP1 ISZERO PUSH2 0x713 JUMPI POP PUSH0 DUP4 DUP2 SLOAD DUP2 LT PUSH2 0x6FC JUMPI PUSH2 0x6FC PUSH2 0xE8F JUMP JUMPDEST PUSH0 SWAP2 DUP3 MSTORE PUSH1 0x20 SWAP1 SWAP2 KECCAK256 PUSH1 0x3 PUSH1 0x4 SWAP1 SWAP3 MUL ADD ADD SLOAD PUSH1 0xFF AND JUMPDEST PUSH2 0x72F JUMPI PUSH1 0x40 MLOAD PUSH3 0x461BCD PUSH1 0xE5 SHL DUP2 MSTORE PUSH1 0x4 ADD PUSH2 0x4FF SWAP1 PUSH2 0x10AE JUMP JUMPDEST PUSH0 DUP1 DUP5 DUP2 SLOAD DUP2 LT PUSH2 0x742 JUMPI PUSH2 0x742 PUSH2 0xE8F JUMP JUMPDEST SWAP1 PUSH0 MSTORE PUSH1 0x20 PUSH0 KECCAK256 SWAP1 PUSH1 0x4 MUL ADD SWAP1 POP DUP3 DUP2 PUSH1 0x1 ADD SWAP1 DUP2 PUSH2 0x761 SWAP2 SWAP1 PUSH2 0xFD2 JUMP JUMPDEST POP DUP2 DUP2 PUSH1 0x2 ADD DUP2 SWAP1 SSTORE POP DUP4 PUSH32 0x84303538537FC260B1A75F003F2666EBEE27EE671E3FDE7C9F365C5557F0DFE9 DUP5 DUP5 PUSH1 0x40 MLOAD PUSH2 0x79D SWAP3 SWAP2 SWAP1 PUSH2 0x108D JUMP JUMPDEST PUSH1 0x40 MLOAD DUP1 SWAP2 SUB SWAP1 LOG2 POP POP POP POP JUMP JUMPDEST PUSH2 0x7D5 PUSH1 0x40 MLOAD DUP1 PUSH1 0x80 ADD PUSH1 0x40 MSTORE DUP1 PUSH0 DUP2 MSTORE PUSH1 0x20 ADD PUSH1 0x60 DUP2 MSTORE PUSH1 0x20 ADD PUSH0 DUP2 MSTORE PUSH1 0x20 ADD PUSH0 ISZERO ISZERO DUP2 MSTORE POP SWAP1 JUMP JUMPDEST PUSH1 0x1 SLOAD DUP3 LT DUP1 ISZERO PUSH2 0x80A JUMPI POP PUSH0 DUP3 DUP2 SLOAD DUP2 LT PUSH2 0x7F3 JUMPI PUSH2 0x7F3 PUSH2 0xE8F JUMP JUMPDEST PUSH0 SWAP2 DUP3 MSTORE PUSH1 0x20 SWAP1 SWAP2 KECCAK256 PUSH1 0x3 PUSH1 0x4 SWAP1 SWAP3 MUL ADD ADD SLOAD PUSH1 0xFF AND JUMPDEST PUSH2 0x826 JUMPI PUSH1 0x40 MLOAD PUSH3 0x461BCD PUSH1 0xE5 SHL DUP2 MSTORE PUSH1 0x4 ADD PUSH2 0x4FF SWAP1 PUSH2 0x10AE JUMP JUMPDEST PUSH0 DUP3 DUP2 SLOAD DUP2 LT PUSH2 0x838 JUMPI PUSH2 0x838 PUSH2 0xE8F JUMP JUMPDEST SWAP1 PUSH0 MSTORE PUSH1 0x20 PUSH0 KECCAK256 SWAP1 PUSH1 0x4 MUL ADD PUSH1 0x40 MLOAD DUP1 PUSH1 0x80 ADD PUSH1 0x40 MSTORE SWAP1 DUP2 PUSH0 DUP3 ADD SLOAD DUP2 MSTORE PUSH1 0x20 ADD PUSH1 0x1 DUP3 ADD DUP1 SLOAD PUSH2 0x868 SWAP1 PUSH2 0xEC7 JUMP JUMPDEST DUP1 PUSH1 0x1F ADD PUSH1 0x20 DUP1 SWAP2 DIV MUL PUSH1 0x20 ADD PUSH1 0x40 MLOAD SWAP1 DUP2 ADD PUSH1 0x40 MSTORE DUP1 SWAP3 SWAP2 SWAP1 DUP2 DUP2 MSTORE PUSH1 0x20 ADD DUP3 DUP1 SLOAD PUSH2 0x894 SWAP1 PUSH2 0xEC7 JUMP JUMPDEST DUP1 ISZERO PUSH2 0x8DF JUMPI DUP1 PUSH1 0x1F LT PUSH2 0x8B6 JUMPI PUSH2 0x100 DUP1 DUP4 SLOAD DIV MUL DUP4 MSTORE SWAP2 PUSH1 0x20 ADD SWAP2 PUSH2 0x8DF JUMP JUMPDEST DUP3 ADD SWAP2 SWAP1 PUSH0 MSTORE PUSH1 0x20 PUSH0 KECCAK256 SWAP1 JUMPDEST DUP2 SLOAD DUP2 MSTORE SWAP1 PUSH1 0x1 ADD SWAP1 PUSH1 0x20 ADD DUP1 DUP4 GT PUSH2 0x8C2 JUMPI DUP3 SWAP1 SUB PUSH1 0x1F AND DUP3 ADD SWAP2 JUMPDEST POP POP POP SWAP2 DUP4 MSTORE POP POP PUSH1 0x2 DUP3 ADD SLOAD PUSH1 0x20 DUP3 ADD MSTORE PUSH1 0x3 SWAP1 SWAP2 ADD SLOAD PUSH1 0xFF AND ISZERO ISZERO PUSH1 0x40 SWAP1 SWAP2 ADD MSTORE SWAP3 SWAP2 POP POP JUMP JUMPDEST PUSH1 0x1 SLOAD DUP2 LT DUP1 ISZERO PUSH2 0x93D JUMPI POP PUSH0 DUP2 DUP2 SLOAD DUP2 LT PUSH2 0x926 JUMPI PUSH2 0x926 PUSH2 0xE8F JUMP JUMPDEST PUSH0 SWAP2 DUP3 MSTORE PUSH1 0x20 SWAP1 SWAP2 KECCAK256 PUSH1 0x3 PUSH1 0x4 SWAP1 SWAP3 MUL ADD ADD SLOAD PUSH1 0xFF AND JUMPDEST PUSH2 0x959 JUMPI PUSH1 0x40 MLOAD PUSH3 0x461BCD PUSH1 0xE5 SHL DUP2 MSTORE PUSH1 0x4 ADD PUSH2 0x4FF SWAP1 PUSH2 0x10AE JUMP JUMPDEST PUSH0 DUP1 DUP3 DUP2 SLOAD DUP2 LT PUSH2 0x96C JUMPI PUSH2 0x96C PUSH2 0xE8F JUMP JUMPDEST PUSH0 SWAP2 DUP3 MSTORE PUSH1 0x20 DUP3 KECCAK256 PUSH1 0x4 SWAP2 SWAP1 SWAP2 MUL ADD PUSH1 0x3 ADD DUP1 SLOAD PUSH1 0xFF NOT AND SWAP3 ISZERO ISZERO SWAP3 SWAP1 SWAP3 OR SWAP1 SWAP2 SSTORE PUSH1 0x40 MLOAD DUP3 SWAP2 PUSH32 0xA398F31DB5E7963635C8E05CB7BDD246A84574C0B1671840AA00E069A9794B12 SWAP2 LOG2 POP JUMP JUMPDEST PUSH1 0x60 PUSH0 DUP1 JUMPDEST PUSH0 SLOAD DUP2 LT ISZERO PUSH2 0xA36 JUMPI PUSH0 DUP2 DUP2 SLOAD DUP2 LT PUSH2 0x9D9 JUMPI PUSH2 0x9D9 PUSH2 0xE8F JUMP JUMPDEST PUSH0 SWAP2 DUP3 MSTORE PUSH1 0x20 SWAP1 SWAP2 KECCAK256 PUSH1 0x3 PUSH1 0x4 SWAP1 SWAP3 MUL ADD ADD SLOAD PUSH1 0xFF AND DUP1 ISZERO PUSH2 0xA1B JUMPI POP DUP4 PUSH0 DUP3 DUP2 SLOAD DUP2 LT PUSH2 0xA09 JUMPI PUSH2 0xA09 PUSH2 0xE8F JUMP JUMPDEST SWAP1 PUSH0 MSTORE PUSH1 0x20 PUSH0 KECCAK256 SWAP1 PUSH1 0x4 MUL ADD PUSH1 0x2 ADD SLOAD EQ JUMPDEST ISZERO PUSH2 0xA2E JUMPI DUP2 PUSH2 0xA2A DUP2 PUSH2 0xEA3 JUMP JUMPDEST SWAP3 POP POP JUMPDEST PUSH1 0x1 ADD PUSH2 0x9BE JUMP JUMPDEST POP PUSH0 DUP2 PUSH8 0xFFFFFFFFFFFFFFFF DUP2 GT ISZERO PUSH2 0xA51 JUMPI PUSH2 0xA51 PUSH2 0xD01 JUMP JUMPDEST PUSH1 0x40 MLOAD SWAP1 DUP1 DUP3 MSTORE DUP1 PUSH1 0x20 MUL PUSH1 0x20 ADD DUP3 ADD PUSH1 0x40 MSTORE DUP1 ISZERO PUSH2 0xAAC JUMPI DUP2 PUSH1 0x20 ADD JUMPDEST PUSH2 0xA99 PUSH1 0x40 MLOAD DUP1 PUSH1 0x80 ADD PUSH1 0x40 MSTORE DUP1 PUSH0 DUP2 MSTORE PUSH1 0x20 ADD PUSH1 0x60 DUP2 MSTORE PUSH1 0x20 ADD PUSH0 DUP2 MSTORE PUSH1 0x20 ADD PUSH0 ISZERO ISZERO DUP2 MSTORE POP SWAP1 JUMP JUMPDEST DUP2 MSTORE PUSH1 0x20 ADD SWAP1 PUSH1 0x1 SWAP1 SUB SWAP1 DUP2 PUSH2 0xA6F JUMPI SWAP1 POP JUMPDEST POP SWAP1 POP PUSH0 DUP1 JUMPDEST PUSH0 SLOAD DUP2 LT ISZERO PUSH2 0xC26 JUMPI PUSH0 DUP2 DUP2 SLOAD DUP2 LT PUSH2 0xACD JUMPI PUSH2 0xACD PUSH2 0xE8F JUMP JUMPDEST PUSH0 SWAP2 DUP3 MSTORE PUSH1 0x20 SWAP1 SWAP2 KECCAK256 PUSH1 0x3 PUSH1 0x4 SWAP1 SWAP3 MUL ADD ADD SLOAD PUSH1 0xFF AND DUP1 ISZERO PUSH2 0xB0F JUMPI POP DUP6 PUSH0 DUP3 DUP2 SLOAD DUP2 LT PUSH2 0xAFD JUMPI PUSH2 0xAFD PUSH2 0xE8F JUMP JUMPDEST SWAP1 PUSH0 MSTORE PUSH1 0x20 PUSH0 KECCAK256 SWAP1 PUSH1 0x4 MUL ADD PUSH1 0x2 ADD SLOAD EQ JUMPDEST ISZERO PUSH2 0xC1E JUMPI PUSH0 DUP2 DUP2 SLOAD DUP2 LT PUSH2 0xB26 JUMPI PUSH2 0xB26 PUSH2 0xE8F JUMP JUMPDEST SWAP1 PUSH0 MSTORE PUSH1 0x20 PUSH0 KECCAK256 SWAP1 PUSH1 0x4 MUL ADD PUSH1 0x40 MLOAD DUP1 PUSH1 0x80 ADD PUSH1 0x40 MSTORE SWAP1 DUP2 PUSH0 DUP3 ADD SLOAD DUP2 MSTORE PUSH1 0x20 ADD PUSH1 0x1 DUP3 ADD DUP1 SLOAD PUSH2 0xB56 SWAP1 PUSH2 0xEC7 JUMP JUMPDEST DUP1 PUSH1 0x1F ADD PUSH1 0x20 DUP1 SWAP2 DIV MUL PUSH1 0x20 ADD PUSH1 0x40 MLOAD SWAP1 DUP2 ADD PUSH1 0x40 MSTORE DUP1 SWAP3 SWAP2 SWAP1 DUP2 DUP2 MSTORE PUSH1 0x20 ADD DUP3 DUP1 SLOAD PUSH2 0xB82 SWAP1 PUSH2 0xEC7 JUMP JUMPDEST DUP1 ISZERO PUSH2 0xBCD JUMPI DUP1 PUSH1 0x1F LT PUSH2 0xBA4 JUMPI PUSH2 0x100 DUP1 DUP4 SLOAD DIV MUL DUP4 MSTORE SWAP2 PUSH1 0x20 ADD SWAP2 PUSH2 0xBCD JUMP JUMPDEST DUP3 ADD SWAP2 SWAP1 PUSH0 MSTORE PUSH1 0x20 PUSH0 KECCAK256 SWAP1 JUMPDEST DUP2 SLOAD DUP2 MSTORE SWAP1 PUSH1 0x1 ADD SWAP1 PUSH1 0x20 ADD DUP1 DUP4 GT PUSH2 0xBB0 JUMPI DUP3 SWAP1 SUB PUSH1 0x1F AND DUP3 ADD SWAP2 JUMPDEST POP POP POP SWAP2 DUP4 MSTORE POP POP PUSH1 0x2 DUP3 ADD SLOAD PUSH1 0x20 DUP3 ADD MSTORE PUSH1 0x3 SWAP1 SWAP2 ADD SLOAD PUSH1 0xFF AND ISZERO ISZERO PUSH1 0x40 SWAP1 SWAP2 ADD MSTORE DUP4 MLOAD DUP5 SWAP1 DUP5 SWAP1 DUP2 LT PUSH2 0xC04 JUMPI PUSH2 0xC04 PUSH2 0xE8F JUMP JUMPDEST PUSH1 0x20 MUL PUSH1 0x20 ADD ADD DUP2 SWAP1 MSTORE POP DUP2 DUP1 PUSH2 0xC1A SWAP1 PUSH2 0xEA3 JUMP JUMPDEST SWAP3 POP POP JUMPDEST PUSH1 0x1 ADD PUSH2 0xAB2 JUMP JUMPDEST POP SWAP1 SWAP5 SWAP4 POP POP POP POP JUMP JUMPDEST PUSH0 DUP2 MLOAD DUP1 DUP5 MSTORE DUP1 PUSH1 0x20 DUP5 ADD PUSH1 0x20 DUP7 ADD MCOPY PUSH0 PUSH1 0x20 DUP3 DUP7 ADD ADD MSTORE PUSH1 0x20 PUSH1 0x1F NOT PUSH1 0x1F DUP4 ADD AND DUP6 ADD ADD SWAP2 POP POP SWAP3 SWAP2 POP POP JUMP JUMPDEST DUP1 MLOAD DUP3 MSTORE PUSH0 PUSH1 0x20 DUP3 ADD MLOAD PUSH1 0x80 PUSH1 0x20 DUP6 ADD MSTORE PUSH2 0xC7C PUSH1 0x80 DUP6 ADD DUP3 PUSH2 0xC30 JUMP JUMPDEST SWAP1 POP PUSH1 0x40 DUP4 ADD MLOAD PUSH1 0x40 DUP6 ADD MSTORE PUSH1 0x60 DUP4 ADD MLOAD ISZERO ISZERO PUSH1 0x60 DUP6 ADD MSTORE DUP1 SWAP2 POP POP SWAP3 SWAP2 POP POP JUMP JUMPDEST PUSH0 PUSH1 0x20 DUP3 ADD PUSH1 0x20 DUP4 MSTORE DUP1 DUP5 MLOAD DUP1 DUP4 MSTORE PUSH1 0x40 DUP6 ADD SWAP2 POP PUSH1 0x40 DUP2 PUSH1 0x5 SHL DUP7 ADD ADD SWAP3 POP PUSH1 0x20 DUP7 ADD PUSH0 JUMPDEST DUP3 DUP2 LT ISZERO PUSH2 0xCF5 JUMPI PUSH1 0x3F NOT DUP8 DUP7 SUB ADD DUP5 MSTORE PUSH2 0xCE0 DUP6 DUP4 MLOAD PUSH2 0xC5E JUMP JUMPDEST SWAP5 POP PUSH1 0x20 SWAP4 DUP5 ADD SWAP4 SWAP2 SWAP1 SWAP2 ADD SWAP1 PUSH1 0x1 ADD PUSH2 0xCC4 JUMP JUMPDEST POP SWAP3 SWAP7 SWAP6 POP POP POP POP POP POP JUMP JUMPDEST PUSH4 0x4E487B71 PUSH1 0xE0 SHL PUSH0 MSTORE PUSH1 0x41 PUSH1 0x4 MSTORE PUSH1 0x24 PUSH0 REVERT JUMPDEST PUSH0 DUP3 PUSH1 0x1F DUP4 ADD SLT PUSH2 0xD24 JUMPI PUSH0 DUP1 REVERT JUMPDEST DUP2 CALLDATALOAD PUSH8 0xFFFFFFFFFFFFFFFF DUP2 GT ISZERO PUSH2 0xD3E JUMPI PUSH2 0xD3E PUSH2 0xD01 JUMP JUMPDEST PUSH1 0x40 MLOAD PUSH1 0x1F DUP3 ADD PUSH1 0x1F NOT SWAP1 DUP2 AND PUSH1 0x3F ADD AND DUP2 ADD PUSH8 0xFFFFFFFFFFFFFFFF DUP2 GT DUP3 DUP3 LT OR ISZERO PUSH2 0xD6D JUMPI PUSH2 0xD6D PUSH2 0xD01 JUMP JUMPDEST PUSH1 0x40 MSTORE DUP2 DUP2 MSTORE DUP4 DUP3 ADD PUSH1 0x20 ADD DUP6 LT ISZERO PUSH2 0xD84 JUMPI PUSH0 DUP1 REVERT JUMPDEST DUP2 PUSH1 0x20 DUP6 ADD PUSH1 0x20 DUP4 ADD CALLDATACOPY PUSH0 SWAP2 DUP2 ADD PUSH1 0x20 ADD SWAP2 SWAP1 SWAP2 MSTORE SWAP4 SWAP3 POP POP POP JUMP JUMPDEST PUSH0 DUP1 PUSH1 0x40 DUP4 DUP6 SUB SLT ISZERO PUSH2 0xDB1 JUMPI PUSH0 DUP1 REVERT JUMPDEST DUP3 CALLDATALOAD PUSH8 0xFFFFFFFFFFFFFFFF DUP2 GT ISZERO PUSH2 0xDC7 JUMPI PUSH0 DUP1 REVERT JUMPDEST PUSH2 0xDD3 DUP6 DUP3 DUP7 ADD PUSH2 0xD15 JUMP JUMPDEST SWAP6 PUSH1 0x20 SWAP5 SWAP1 SWAP5 ADD CALLDATALOAD SWAP5 POP POP POP POP JUMP JUMPDEST PUSH0 PUSH1 0x20 DUP3 DUP5 SUB SLT ISZERO PUSH2 0xDF2 JUMPI PUSH0 DUP1 REVERT JUMPDEST POP CALLDATALOAD SWAP2 SWAP1 POP JUMP JUMPDEST DUP5 DUP2 MSTORE PUSH1 0x80 PUSH1 0x20 DUP3 ADD MSTORE PUSH0 PUSH2 0xE11 PUSH1 0x80 DUP4 ADD DUP7 PUSH2 0xC30 JUMP JUMPDEST PUSH1 0x40 DUP4 ADD SWAP5 SWAP1 SWAP5 MSTORE POP SWAP1 ISZERO ISZERO PUSH1 0x60 SWAP1 SWAP2 ADD MSTORE SWAP3 SWAP2 POP POP JUMP JUMPDEST PUSH0 DUP1 PUSH0 PUSH1 0x60 DUP5 DUP7 SUB SLT ISZERO PUSH2 0xE3B JUMPI PUSH0 DUP1 REVERT JUMPDEST DUP4 CALLDATALOAD SWAP3 POP PUSH1 0x20 DUP5 ADD CALLDATALOAD PUSH8 0xFFFFFFFFFFFFFFFF DUP2 GT ISZERO PUSH2 0xE58 JUMPI PUSH0 DUP1 REVERT JUMPDEST PUSH2 0xE64 DUP7 DUP3 DUP8 ADD PUSH2 0xD15 JUMP JUMPDEST SWAP4 SWAP7 SWAP4 SWAP6 POP POP POP POP PUSH1 0x40 SWAP2 SWAP1 SWAP2 ADD CALLDATALOAD SWAP1 JUMP JUMPDEST PUSH1 0x20 DUP2 MSTORE PUSH0 PUSH2 0xE88 PUSH1 0x20 DUP4 ADD DUP5 PUSH2 0xC5E JUMP JUMPDEST SWAP4 SWAP3 POP POP POP JUMP JUMPDEST PUSH4 0x4E487B71 PUSH1 0xE0 SHL PUSH0 MSTORE PUSH1 0x32 PUSH1 0x4 MSTORE PUSH1 0x24 PUSH0 REVERT JUMPDEST PUSH0 PUSH1 0x1 DUP3 ADD PUSH2 0xEC0 JUMPI PUSH4 0x4E487B71 PUSH1 0xE0 SHL PUSH0 MSTORE PUSH1 0x11 PUSH1 0x4 MSTORE PUSH1 0x24 PUSH0 REVERT JUMPDEST POP PUSH1 0x1 ADD SWAP1 JUMP JUMPDEST PUSH1 0x1 DUP2 DUP2 SHR SWAP1 DUP3 AND DUP1 PUSH2 0xEDB JUMPI PUSH1 0x7F DUP3 AND SWAP2 POP JUMPDEST PUSH1 0x20 DUP3 LT DUP2 SUB PUSH2 0xEF9 JUMPI PUSH4 0x4E487B71 PUSH1 0xE0 SHL PUSH0 MSTORE PUSH1 0x22 PUSH1 0x4 MSTORE PUSH1 0x24 PUSH0 REVERT JUMPDEST POP SWAP2 SWAP1 POP JUMP JUMPDEST PUSH0 DUP3 MLOAD DUP1 PUSH1 0x20 DUP6 ADD DUP5 MCOPY PUSH0 SWAP3 ADD SWAP2 DUP3 MSTORE POP SWAP2 SWAP1 POP JUMP JUMPDEST PUSH0 DUP1 DUP4 SLOAD PUSH2 0xF22 DUP2 PUSH2 0xEC7 JUMP JUMPDEST PUSH1 0x1 DUP3 AND DUP1 ISZERO PUSH2 0xF39 JUMPI PUSH1 0x1 DUP2 EQ PUSH2 0xF4E JUMPI PUSH2 0xF7B JUMP JUMPDEST PUSH1 0xFF NOT DUP4 AND DUP7 MSTORE DUP2 ISZERO ISZERO DUP3 MUL DUP7 ADD SWAP4 POP PUSH2 0xF7B JUMP JUMPDEST DUP7 PUSH0 MSTORE PUSH1 0x20 PUSH0 KECCAK256 PUSH0 JUMPDEST DUP4 DUP2 LT ISZERO PUSH2 0xF73 JUMPI DUP2 SLOAD DUP9 DUP3 ADD MSTORE PUSH1 0x1 SWAP1 SWAP2 ADD SWAP1 PUSH1 0x20 ADD PUSH2 0xF57 JUMP JUMPDEST POP POP DUP2 DUP7 ADD SWAP4 POP JUMPDEST POP SWAP2 SWAP6 SWAP5 POP POP POP POP POP JUMP JUMPDEST PUSH1 0x1F DUP3 GT ISZERO PUSH2 0xFCD JUMPI DUP1 PUSH0 MSTORE PUSH1 0x20 PUSH0 KECCAK256 PUSH1 0x1F DUP5 ADD PUSH1 0x5 SHR DUP2 ADD PUSH1 0x20 DUP6 LT ISZERO PUSH2 0xFAB JUMPI POP DUP1 JUMPDEST PUSH1 0x1F DUP5 ADD PUSH1 0x5 SHR DUP3 ADD SWAP2 POP JUMPDEST DUP2 DUP2 LT ISZERO PUSH2 0xFCA JUMPI PUSH0 DUP2 SSTORE PUSH1 0x1 ADD PUSH2 0xFB7 JUMP JUMPDEST POP POP JUMPDEST POP POP POP JUMP JUMPDEST DUP2 MLOAD PUSH8 0xFFFFFFFFFFFFFFFF DUP2 GT ISZERO PUSH2 0xFEC JUMPI PUSH2 0xFEC PUSH2 0xD01 JUMP JUMPDEST PUSH2 0x1000 DUP2 PUSH2 0xFFA DUP5 SLOAD PUSH2 0xEC7 JUMP JUMPDEST DUP5 PUSH2 0xF86 JUMP JUMPDEST PUSH1 0x20 PUSH1 0x1F DUP3 GT PUSH1 0x1 DUP2 EQ PUSH2 0x1032 JUMPI PUSH0 DUP4 ISZERO PUSH2 0x101B JUMPI POP DUP5 DUP3 ADD MLOAD JUMPDEST PUSH0 NOT PUSH1 0x3 DUP6 SWAP1 SHL SHR NOT AND PUSH1 0x1 DUP5 SWAP1 SHL OR DUP5 SSTORE PUSH2 0xFCA JUMP JUMPDEST PUSH0 DUP5 DUP2 MSTORE PUSH1 0x20 DUP2 KECCAK256 PUSH1 0x1F NOT DUP6 AND SWAP2 JUMPDEST DUP3 DUP2 LT ISZERO PUSH2 0x1061 JUMPI DUP8 DUP6 ADD MLOAD DUP3 SSTORE PUSH1 0x20 SWAP5 DUP6 ADD SWAP5 PUSH1 0x1 SWAP1 SWAP3 ADD SWAP2 ADD PUSH2 0x1041 JUMP JUMPDEST POP DUP5 DUP3 LT ISZERO PUSH2 0x107E JUMPI DUP7 DUP5 ADD MLOAD PUSH0 NOT PUSH1 0x3 DUP8 SWAP1 SHL PUSH1 0xF8 AND SHR NOT AND DUP2 SSTORE JUMPDEST POP POP POP POP PUSH1 0x1 SWAP1 DUP2 SHL ADD SWAP1 SSTORE POP JUMP JUMPDEST PUSH1 0x40 DUP2 MSTORE PUSH0 PUSH2 0x109F PUSH1 0x40 DUP4 ADD DUP6 PUSH2 0xC30 JUMP JUMPDEST SWAP1 POP DUP3 PUSH1 0x20 DUP4 ADD MSTORE SWAP4 SWAP3 POP POP POP JUMP JUMPDEST PUSH1 0x20 DUP1 DUP3 MSTORE PUSH1 0x14 SWAP1 DUP3 ADD MSTORE PUSH20 0x111C9BDB9948191BD95CC81B9BDD08195E1A5CDD PUSH1 0x62 SHL PUSH1 0x40 DUP3 ADD MSTORE PUSH1 0x60 ADD SWAP1 JUMP INVALID LOG2 PUSH5 0x6970667358 0x22 SLT KECCAK256 0xF6 DUP4 PUSH5 0xEE660E9FCA STOP 0xE8 0xD0 LT SWAP6 PUSH19 0xCFA73C3C1C5498C3DE6EB09B761E72BCF42E64 PUSH20 0x6F6C634300081A00330000000000000000000000 "},"methodIdentifiers":{"createDrone(string,int256)":"276f5038","deleteDrone(uint256)":"ed88eb6d","drones(uint256)":"9341bc00","getDrone(uint256)":"dbd1be77","getDrones()":"07d5ebf5","getDronesByZone(int256)":"f6e76098","nextId()":"61b8ce8c","updateDrone(uint256,string,int256)":"d7c7a2ba"}}}}}