{"project/contracts/PDP.sol":{"PDP":{"abi":[{"inputs":[{"internalType":"address","name":"_policyAddress","type":"address"},{"internalType":"address","name":"_droneAddress","type":"address"},{"internalType":"address","name":"_loggerAddress","type":"address"}],"stateMutability":"nonpayable","type":"constructor"},{"anonymous":false,"inputs":[{"indexed":true,"internalType":"uint256","name":"entityId","type":"uint256"},{"indexed":false,"internalType":"bool","name":"accessGranted","type":"bool"}],"name":"AccessEvaluated","type":"event"},{"inputs":[],"name":"drone","outputs":[{"internalType":"contract DroneContract","name":"","type":"address"}],"stateMutability":"view","type":"function"},{"inputs":[{"internalType":"uint256","name":"_id","type":"uint256"},{"internalType":"string","name":"_model_type","type":"string"},{"internalType":"int256","name":"_zone","type":"int256"},{"internalType":"string","name":"_startTime","type":"string"},{"internalType":"string","name":"_endTime","type":"string"},{"internalType":"bool","name":"_accessGranted","type":"bool"}],"name":"level0EvaluateAccess","outputs":[{"internalType":"bool","name":"","type":"bool"}],"stateMutability":"nonpayable","type":"function"},{"inputs":[{"internalType":"uint256","name":"_id","type":"uint256"},{"internalType":"string","name":"_model_type","type":"string"},{"internalType":"int256","name":"_zone","type":"int256"},{"internalType":"string","name":"_startTime","type":"string"},{"internalType":"string","name":"_endTime","type":"string"}],"name":"level1EvaluateAccess","outputs":[{"internalType":"bool","name":"","type":"bool"}],"stateMutability":"nonpayable","type":"function"},{"inputs":[{"internalType":"uint256","name":"_id","type":"uint256"},{"internalType":"string","name":"_model_type","type":"string"},{"internalType":"int256","name":"_zone","type":"int256"}],"name":"level2EvaluateAccess","outputs":[{"internalType":"bool","name":"","type":"bool"}],"stateMutability":"nonpayable","type":"function"},{"inputs":[{"internalType":"uint256","name":"_entityId","type":"uint256"}],"name":"level3EvaluateAccess","outputs":[{"internalType":"bool","name":"","type":"bool"}],"stateMutability":"nonpayable","type":"function"},{"inputs":[],"name":"logger","outputs":[{"internalType":"contract LoggingContract","name":"","type":"address"}],"stateMutability":"view","type":"function"},{"inputs":[],"name":"policy","outputs":[{"internalType":"contract PolicyContract","name":"","type":"address"}],"stateMutability":"view","type":"function"}],"evm":{"bytecode":{"linkReferences":{},"object":"6080604052348015600e575f80fd5b50604051611efa380380611efa833981016040819052602b916085565b600180546001600160a01b039485166001600160a01b03199182161790915560028054938516938216939093179092555f805491909316911617905560be565b80516001600160a01b03811681146080575f80fd5b919050565b5f805f606084860312156096575f80fd5b609d84606b565b925060a960208501606b565b915060b560408501606b565b90509250925092565b611e2f806100cb5f395ff3fe608060405234801561000f575f80fd5b506004361061007a575f3560e01c8063b0ddbe0d11610058578063b0ddbe0d146100e4578063b46e12f3146100f7578063ca8a46581461010a578063f24ccbfe1461011d575f80fd5b80630505c8c91461007e57806317234696146100ae5780638edf104b146100d1575b5f80fd5b600154610091906001600160a01b031681565b6040516001600160a01b0390911681526020015b60405180910390f35b6100c16100bc366004611648565b61012f565b60405190151581526020016100a5565b600254610091906001600160a01b031681565b6100c16100f2366004611765565b61059c565b6100c1610105366004611803565b610901565b6100c161011836600461185f565b610cec565b5f54610091906001600160a01b031681565b5f8061013d612a3042611924565b90505f61014d620151808361194b565b60025460405163dbd1be7760e01b8152600481018790529192505f9182916001600160a01b03169063dbd1be77906024015f60405180830381865afa158015610198573d5f803e3d5ffd5b505050506040513d5f823e601f3d908101601f191682016040526101bf91908101906119ab565b6001546040808301519051632751ed2760e21b81529293505f926001600160a01b0390921691639d47b49c916101fb9160040190815260200190565b5f60405180830381865afa158015610215573d5f803e3d5ffd5b505050506040513d5f823e601f3d908101601f1916820160405261023c9190810190611a40565b90505f61024886611028565b905061025d85836040015184606001516110cb565b1561026757600193505b60408051808201909152600e81526d1058d8d95cdcc814995c5d595cdd60921b60208201525f6102968a611128565b836040516020016102a8929190611b16565b60408051601f19818403018152908290525f546312ff157b60e31b83529092506001600160a01b0316906397f8abd8906102e89085908590600401611b8d565b5f604051808303815f87803b1580156102ff575f80fd5b505af1158015610311573d5f803e3d5ffd5b505050506040518060400160405280600381526020016205049560ec1b815250915061033c8a611128565b856020015161034e876040015161124d565b60405160200161036093929190611bb1565b60408051601f19818403018152908290525f546312ff157b60e31b83529092506001600160a01b0316906397f8abd8906103a09085908590600401611b8d565b5f604051808303815f87803b1580156103b7575f80fd5b505af11580156103c9573d5f803e3d5ffd5b505050506040518060400160405280600381526020016205052560ec1b81525091506103f8846020015161124d565b8460400151856060015160405160200161041493929190611c0c565b60408051601f19818403018152908290525f546312ff157b60e31b83529092506001600160a01b0316906397f8abd8906104549085908590600401611b8d565b5f604051808303815f87803b15801561046b575f80fd5b505af115801561047d573d5f803e3d5ffd5b505050506040518060400160405280600381526020016205044560ec1b8152509150856104c8576040518060400160405280600681526020016511195b9a595960d21b8152506104e8565b6040518060400160405280600681526020016514185cdcd95960d21b8152505b6040516020016104f89190611c66565b60408051601f19818403018152908290525f546312ff157b60e31b83529092506001600160a01b0316906397f8abd8906105389085908590600401611b8d565b5f604051808303815f87803b15801561054f575f80fd5b505af1158015610561573d5f803e3d5ffd5b50505050895f80516020611dda83398151915287604051610586911515815260200190565b60405180910390a2509398975050505050505050565b5f806105aa612a3042611924565b90505f6105ba620151808361194b565b90505f806105c784611028565b90506105d48388886110cb565b156105de57600191505b60408051808201909152600e81526d1058d8d95cdcc814995c5d595cdd60921b60208201525f61060d8c611128565b8360405160200161061f929190611c84565b60408051601f19818403018152908290525f546312ff157b60e31b83529092506001600160a01b0316906397f8abd89061065f9085908590600401611b8d565b5f604051808303815f87803b158015610676575f80fd5b505af1158015610688573d5f803e3d5ffd5b505050506040518060400160405280600381526020016205049560ec1b81525091506106b38c611128565b8b6106bd8c61124d565b6040516020016106cf93929190611bb1565b60408051601f19818403018152908290525f546312ff157b60e31b83529092506001600160a01b0316906397f8abd89061070f9085908590600401611b8d565b5f604051808303815f87803b158015610726575f80fd5b505af1158015610738573d5f803e3d5ffd5b505050506040518060400160405280600381526020016205052560ec1b81525091506107638a61124d565b898960405160200161077793929190611c0c565b60408051601f19818403018152908290525f546312ff157b60e31b83529092506001600160a01b0316906397f8abd8906107b79085908590600401611b8d565b5f604051808303815f87803b1580156107ce575f80fd5b505af11580156107e0573d5f803e3d5ffd5b505050506040518060400160405280600381526020016205044560ec1b81525091508361082b576040518060400160405280600681526020016511195b9a595960d21b81525061084b565b6040518060400160405280600681526020016514185cdcd95960d21b8152505b60405160200161085b9190611c66565b60408051601f19818403018152908290525f546312ff157b60e31b83529092506001600160a01b0316906397f8abd89061089b9085908590600401611b8d565b5f604051808303815f87803b1580156108b2575f80fd5b505af11580156108c4573d5f803e3d5ffd5b505050508b5f80516020611dda833981519152856040516108e9911515815260200190565b60405180910390a250919a9950505050505050505050565b5f8061090f612a3042611924565b90505f61091f620151808361194b565b600154604051632751ed2760e21b8152600481018790529192505f9182916001600160a01b031690639d47b49c906024015f60405180830381865afa15801561096a573d5f803e3d5ffd5b505050506040513d5f823e601f3d908101601f191682016040526109919190810190611a40565b90505f61099d85611028565b90506109b284836040015184606001516110cb565b156109bc57600192505b60408051808201909152600e81526d1058d8d95cdcc814995c5d595cdd60921b60208201525f6109eb8b611128565b836040516020016109fd929190611ca9565b60408051601f19818403018152908290525f546312ff157b60e31b83529092506001600160a01b0316906397f8abd890610a3d9085908590600401611b8d565b5f604051808303815f87803b158015610a54575f80fd5b505af1158015610a66573d5f803e3d5ffd5b505050506040518060400160405280600381526020016205049560ec1b8152509150610a918b611128565b8a610a9b8b61124d565b604051602001610aad93929190611bb1565b60408051601f19818403018152908290525f546312ff157b60e31b83529092506001600160a01b0316906397f8abd890610aed9085908590600401611b8d565b5f604051808303815f87803b158015610b04575f80fd5b505af1158015610b16573d5f803e3d5ffd5b505050506040518060400160405280600381526020016205052560ec1b8152509150610b45846020015161124d565b84604001518560600151604051602001610b6193929190611c0c565b60408051601f19818403018152908290525f546312ff157b60e31b83529092506001600160a01b0316906397f8abd890610ba19085908590600401611b8d565b5f604051808303815f87803b158015610bb8575f80fd5b505af1158015610bca573d5f803e3d5ffd5b505050506040518060400160405280600381526020016205044560ec1b815250915084610c15576040518060400160405280600681526020016511195b9a595960d21b815250610c35565b6040518060400160405280600681526020016514185cdcd95960d21b8152505b604051602001610c459190611c66565b60408051601f19818403018152908290525f546312ff157b60e31b83529092506001600160a01b0316906397f8abd890610c859085908590600401611b8d565b5f604051808303815f87803b158015610c9c575f80fd5b505af1158015610cae573d5f803e3d5ffd5b505050508a5f80516020611dda83398151915286604051610cd3911515815260200190565b60405180910390a25092955050505050505b9392505050565b5f80610cfa612a3042611924565b90505f610d0682611028565b60408051808201909152600e81526d1058d8d95cdcc814995c5d595cdd60921b60208201529091505f610d388b611128565b83604051602001610d4a929190611cce565b60408051601f19818403018152908290525f546312ff157b60e31b83529092506001600160a01b0316906397f8abd890610d8a9085908590600401611b8d565b5f604051808303815f87803b158015610da1575f80fd5b505af1158015610db3573d5f803e3d5ffd5b505050506040518060400160405280600381526020016205049560ec1b8152509150610dde8b611128565b8a610de88b61124d565b604051602001610dfa93929190611bb1565b60408051601f19818403018152908290525f546312ff157b60e31b83529092506001600160a01b0316906397f8abd890610e3a9085908590600401611b8d565b5f604051808303815f87803b158015610e51575f80fd5b505af1158015610e63573d5f803e3d5ffd5b505050506040518060400160405280600381526020016205052560ec1b8152509150610e8e8961124d565b8888604051602001610ea293929190611c0c565b60408051601f19818403018152908290525f546312ff157b60e31b83529092506001600160a01b0316906397f8abd890610ee29085908590600401611b8d565b5f604051808303815f87803b158015610ef9575f80fd5b505af1158015610f0b573d5f803e3d5ffd5b505050506040518060400160405280600381526020016205044560ec1b815250915085610f56576040518060400160405280600681526020016511195b9a595960d21b815250610f76565b6040518060400160405280600681526020016514185cdcd95960d21b8152505b604051602001610f869190611c66565b60408051601f19818403018152908290525f546312ff157b60e31b83529092506001600160a01b0316906397f8abd890610fc69085908590600401611b8d565b5f604051808303815f87803b158015610fdd575f80fd5b505af1158015610fef573d5f803e3d5ffd5b505060405188151581528892508d91505f80516020611dda8339815191529060200160405180910390a29b9a5050505050505050505050565b60605f6018603c6110398186611cf3565b6110439190611cf3565b61104d919061194b565b90505f603c61105c8186611cf3565b611066919061194b565b90505f611074603c8661194b565b90505f611080846113eb565b90505f61108c846113eb565b90505f611098846113eb565b90508282826040516020016110af93929190611d06565b6040516020818303038152906040529650505050505050919050565b5f806110d684611434565b90505f6110e284611434565b9050808211611104578186101580156110fb5750808611155b92505050610ce5565b81861180156111165750620151808611155b806110fb57508511159150610ce59050565b6060815f0361114e5750506040805180820190915260018152600360fc1b602082015290565b815f5b8115611177578061116181611d3b565b91506111709050600a83611cf3565b9150611151565b5f816001600160401b038111156111905761119061165f565b6040519080825280601f01601f1916602001820160405280156111ba576020820181803683370190505b509050815b8515611244576111d0600182611d53565b90505f6111de600a88611cf3565b6111e990600a611d66565b6111f39088611d53565b6111fe906030611d7d565b90505f8160f81b90508084848151811061121a5761121a611d96565b60200101906001600160f81b03191690815f1a90535061123b600a89611cf3565b975050506111bf565b50949350505050565b6060815f036112735750506040805180820190915260018152600360fc1b602082015290565b5f8083129081611283578361128c565b61128c84611daa565b90505f5b81156112b657806112a081611d3b565b91506112af9050600a83611cf3565b9150611290565b82156112ca57806112c681611d3b565b9150505b5f816001600160401b038111156112e3576112e361165f565b6040519080825280601f01601f19166020018201604052801561130d576020820181803683370190505b509050818461131c5786611325565b61132587611daa565b93505b83156113ad57611339600182611d53565b90505f611347600a86611cf3565b61135290600a611d66565b61135c9086611d53565b611367906030611d7d565b90505f8160f81b90508084848151811061138357611383611d96565b60200101906001600160f81b03191690815f1a9053506113a4600a87611cf3565b95505050611328565b84156113e157602d60f81b825f815181106113ca576113ca611d96565b60200101906001600160f81b03191690815f1a9053505b5095945050505050565b6060600a821015611425576113ff82611128565b60405160200161140f9190611dc4565b6040516020818303038152906040529050919050565b61142e82611128565b92915050565b80515f9082906008146114845760405162461bcd60e51b81526020600482015260136024820152721a5b9d985b1a59081d1a5b5948199bdc9b585d606a1b60448201526064015b60405180910390fd5b5f60308260018151811061149a5761149a611d96565b01602001516114ac919060f81c611d53565b6030835f815181106114c0576114c0611d96565b01602001516114d2919060f81c611d53565b6114dd90600a611d66565b6114e79190611924565b90505f6030836004815181106114ff576114ff611d96565b0160200151611511919060f81c611d53565b60308460038151811061152657611526611d96565b0160200151611538919060f81c611d53565b61154390600a611d66565b61154d9190611924565b90505f60308460078151811061156557611565611d96565b0160200151611577919060f81c611d53565b60308560068151811061158c5761158c611d96565b016020015161159e919060f81c611d53565b6115a990600a611d66565b6115b39190611924565b90506018831080156115c55750603c82105b80156115d15750603c81105b6116125760405162461bcd60e51b8152602060048201526012602482015271496e76616c69642074696d652076616c756560701b604482015260640161147b565b8061161e83603c611d66565b61162a85610e10611d66565b6116349190611924565b61163e9190611924565b9695505050505050565b5f60208284031215611658575f80fd5b5035919050565b634e487b7160e01b5f52604160045260245ffd5b604051608081016001600160401b03811182821017156116955761169561165f565b60405290565b60405160a081016001600160401b03811182821017156116955761169561165f565b604051601f8201601f191681016001600160401b03811182821017156116e5576116e561165f565b604052919050565b5f6001600160401b038211156117055761170561165f565b50601f01601f191660200190565b5f82601f830112611722575f80fd5b8135611735611730826116ed565b6116bd565b818152846020838601011115611749575f80fd5b816020850160208301375f918101602001919091529392505050565b5f805f805f60a08688031215611779575f80fd5b8535945060208601356001600160401b03811115611795575f80fd5b6117a188828901611713565b9450506040860135925060608601356001600160401b038111156117c3575f80fd5b6117cf88828901611713565b92505060808601356001600160401b038111156117ea575f80fd5b6117f688828901611713565b9150509295509295909350565b5f805f60608486031215611815575f80fd5b8335925060208401356001600160401b03811115611831575f80fd5b61183d86828701611713565b93969395505050506040919091013590565b801515811461185c575f80fd5b50565b5f805f805f8060c08789031215611874575f80fd5b8635955060208701356001600160401b03811115611890575f80fd5b61189c89828a01611713565b9550506040870135935060608701356001600160401b038111156118be575f80fd5b6118ca89828a01611713565b93505060808701356001600160401b038111156118e5575f80fd5b6118f189828a01611713565b92505060a08701356119028161184f565b809150509295509295509295565b634e487b7160e01b5f52601160045260245ffd5b8082018082111561142e5761142e611910565b634e487b7160e01b5f52601260045260245ffd5b5f8261195957611959611937565b500690565b5f82601f83011261196d575f80fd5b815161197b611730826116ed565b81815284602083860101111561198f575f80fd5b8160208501602083015e5f918101602001919091529392505050565b5f602082840312156119bb575f80fd5b81516001600160401b038111156119d0575f80fd5b8201608081850312156119e1575f80fd5b6119e9611673565b8151815260208201516001600160401b03811115611a05575f80fd5b611a118682850161195e565b6020830152506040828101519082015260609091015190611a318261184f565b60608101919091529392505050565b5f60208284031215611a50575f80fd5b81516001600160401b03811115611a65575f80fd5b820160a08185031215611a76575f80fd5b611a7e61169b565b815181526020808301519082015260408201516001600160401b03811115611aa4575f80fd5b611ab08682850161195e565b60408301525060608201516001600160401b03811115611ace575f80fd5b611ada8682850161195e565b60608301525060808201519150611af08261184f565b60808101919091529392505050565b5f81518060208401855e5f93019283525090919050565b7002632bb32b61d10199610223937b7329d1607d1b81525f611b3b6011830185611aff565b67016102a34b6b29d160c51b8152611b566008820185611aff565b95945050505050565b5f81518084528060208401602086015e5f602082860101526020601f19601f83011685010191505092915050565b604081525f611b9f6040830185611b5f565b8281036020840152611b568185611b5f565b690223937b7329024b21d160b51b81525f611bcf600a830186611aff565b6c0161026b7b232b62a3cb8329d1609d1b8152611bef600d820186611aff565b905067016102d37b7329d160c51b815261163e6008820185611aff565b6502d37b7329d160d51b81525f611c266006830186611aff565b6c0161029ba30b93a2a34b6b29d1609d1b8152611c46600d820186611aff565b90506a0161022b7322a34b6b29d160ad1b815261163e600b820185611aff565b6902232b1b4b9b4b7b71d160b51b81525f610ce5600a830184611aff565b7002632bb32b61d10189610223937b7329d1607d1b81525f611b3b6011830185611aff565b7002632bb32b61d10191610223937b7329d1607d1b81525f611b3b6011830185611aff565b7002632bb32b61d10181610223937b7329d1607d1b81525f611b3b6011830185611aff565b5f82611d0157611d01611937565b500490565b5f611d118286611aff565b601d60f91b8152611d256001820186611aff565b9050601d60f91b815261163e6001820185611aff565b5f60018201611d4c57611d4c611910565b5060010190565b8181038181111561142e5761142e611910565b808202811582820484141761142e5761142e611910565b60ff818116838216019081111561142e5761142e611910565b634e487b7160e01b5f52603260045260245ffd5b5f600160ff1b8201611dbe57611dbe611910565b505f0390565b600360fc1b81525f610ce56001830184611aff56feb79696d005aad537e335b7484a22a2a95e6210165a0471175c06351d2e79ae9da2646970667358221220ffac622c905abeaf2e85ade7ca5f2ea791700660e8cd86fd674a7f4a712d49d664736f6c634300081a0033","opcodes":"PUSH1 0x80 PUSH1 0x40 MSTORE CALLVALUE DUP1 ISZERO PUSH1 0xE JUMPI PUSH0 DUP1 REVERT JUMPDEST POP PUSH1 0x40 MLOAD PUSH2 0x1EFA CODESIZE SUB DUP1 PUSH2 0x1EFA DUP4 CODECOPY DUP2 ADD PUSH1 0x40 DUP2 SWAP1 MSTORE PUSH1 0x2B SWAP2 PUSH1 0x85 JUMP JUMPDEST PUSH1 0x1 DUP1 SLOAD PUSH1 0x1 PUSH1 0x1 PUSH1 0xA0 SHL SUB SWAP5 DUP6 AND PUSH1 0x1 PUSH1 0x1 PUSH1 0xA0 SHL SUB NOT SWAP2 DUP3 AND OR SWAP1 SWAP2 SSTORE PUSH1 0x2 DUP1 SLOAD SWAP4 DUP6 AND SWAP4 DUP3 AND SWAP4 SWAP1 SWAP4 OR SWAP1 SWAP3 SSTORE PUSH0 DUP1 SLOAD SWAP2 SWAP1 SWAP4 AND SWAP2 AND OR SWAP1 SSTORE PUSH1 0xBE JUMP JUMPDEST DUP1 MLOAD PUSH1 0x1 PUSH1 0x1 PUSH1 0xA0 SHL SUB DUP2 AND DUP2 EQ PUSH1 0x80 JUMPI PUSH0 DUP1 REVERT JUMPDEST SWAP2 SWAP1 POP JUMP JUMPDEST PUSH0 DUP1 PUSH0 PUSH1 0x60 DUP5 DUP7 SUB SLT ISZERO PUSH1 0x96 JUMPI PUSH0 DUP1 REVERT JUMPDEST PUSH1 0x9D DUP5 PUSH1 0x6B JUMP JUMPDEST SWAP3 POP PUSH1 0xA9 PUSH1 0x20 DUP6 ADD PUSH1 0x6B JUMP JUMPDEST SWAP2 POP PUSH1 0xB5 PUSH1 0x40 DUP6 ADD PUSH1 0x6B JUMP JUMPDEST SWAP1 POP SWAP3 POP SWAP3 POP SWAP3 JUMP JUMPDEST PUSH2 0x1E2F DUP1 PUSH2 0xCB PUSH0 CODECOPY PUSH0 RETURN INVALID PUSH1 0x80 PUSH1 0x40 MSTORE CALLVALUE DUP1 ISZERO PUSH2 0xF JUMPI PUSH0 DUP1 REVERT JUMPDEST POP PUSH1 0x4 CALLDATASIZE LT PUSH2 0x7A JUMPI PUSH0 CALLDATALOAD PUSH1 0xE0 SHR DUP1 PUSH4 0xB0DDBE0D GT PUSH2 0x58 JUMPI DUP1 PUSH4 0xB0DDBE0D EQ PUSH2 0xE4 JUMPI DUP1 PUSH4 0xB46E12F3 EQ PUSH2 0xF7 JUMPI DUP1 PUSH4 0xCA8A4658 EQ PUSH2 0x10A JUMPI DUP1 PUSH4 0xF24CCBFE EQ PUSH2 0x11D JUMPI PUSH0 DUP1 REVERT JUMPDEST DUP1 PUSH4 0x505C8C9 EQ PUSH2 0x7E JUMPI DUP1 PUSH4 0x17234696 EQ PUSH2 0xAE JUMPI DUP1 PUSH4 0x8EDF104B EQ PUSH2 0xD1 JUMPI JUMPDEST PUSH0 DUP1 REVERT JUMPDEST PUSH1 0x1 SLOAD PUSH2 0x91 SWAP1 PUSH1 0x1 PUSH1 0x1 PUSH1 0xA0 SHL SUB AND DUP2 JUMP JUMPDEST PUSH1 0x40 MLOAD PUSH1 0x1 PUSH1 0x1 PUSH1 0xA0 SHL SUB SWAP1 SWAP2 AND DUP2 MSTORE PUSH1 0x20 ADD JUMPDEST PUSH1 0x40 MLOAD DUP1 SWAP2 SUB SWAP1 RETURN JUMPDEST PUSH2 0xC1 PUSH2 0xBC CALLDATASIZE PUSH1 0x4 PUSH2 0x1648 JUMP JUMPDEST PUSH2 0x12F JUMP JUMPDEST PUSH1 0x40 MLOAD SWAP1 ISZERO ISZERO DUP2 MSTORE PUSH1 0x20 ADD PUSH2 0xA5 JUMP JUMPDEST PUSH1 0x2 SLOAD PUSH2 0x91 SWAP1 PUSH1 0x1 PUSH1 0x1 PUSH1 0xA0 SHL SUB AND DUP2 JUMP JUMPDEST PUSH2 0xC1 PUSH2 0xF2 CALLDATASIZE PUSH1 0x4 PUSH2 0x1765 JUMP JUMPDEST PUSH2 0x59C JUMP JUMPDEST PUSH2 0xC1 PUSH2 0x105 CALLDATASIZE PUSH1 0x4 PUSH2 0x1803 JUMP JUMPDEST PUSH2 0x901 JUMP JUMPDEST PUSH2 0xC1 PUSH2 0x118 CALLDATASIZE PUSH1 0x4 PUSH2 0x185F JUMP JUMPDEST PUSH2 0xCEC JUMP JUMPDEST PUSH0 SLOAD PUSH2 0x91 SWAP1 PUSH1 0x1 PUSH1 0x1 PUSH1 0xA0 SHL SUB AND DUP2 JUMP JUMPDEST PUSH0 DUP1 PUSH2 0x13D PUSH2 0x2A30 TIMESTAMP PUSH2 0x1924 JUMP JUMPDEST SWAP1 POP PUSH0 PUSH2 0x14D PUSH3 0x15180 DUP4 PUSH2 0x194B JUMP JUMPDEST PUSH1 0x2 SLOAD PUSH1 0x40 MLOAD PUSH4 0xDBD1BE77 PUSH1 0xE0 SHL DUP2 MSTORE PUSH1 0x4 DUP2 ADD DUP8 SWAP1 MSTORE SWAP2 SWAP3 POP PUSH0 SWAP2 DUP3 SWAP2 PUSH1 0x1 PUSH1 0x1 PUSH1 0xA0 SHL SUB AND SWAP1 PUSH4 0xDBD1BE77 SWAP1 PUSH1 0x24 ADD PUSH0 PUSH1 0x40 MLOAD DUP1 DUP4 SUB DUP2 DUP7 GAS STATICCALL ISZERO DUP1 ISZERO PUSH2 0x198 JUMPI RETURNDATASIZE PUSH0 DUP1 RETURNDATACOPY RETURNDATASIZE PUSH0 REVERT JUMPDEST POP POP POP POP PUSH1 0x40 MLOAD RETURNDATASIZE PUSH0 DUP3 RETURNDATACOPY PUSH1 0x1F RETURNDATASIZE SWAP1 DUP2 ADD PUSH1 0x1F NOT AND DUP3 ADD PUSH1 0x40 MSTORE PUSH2 0x1BF SWAP2 SWAP1 DUP2 ADD SWAP1 PUSH2 0x19AB JUMP JUMPDEST PUSH1 0x1 SLOAD PUSH1 0x40 DUP1 DUP4 ADD MLOAD SWAP1 MLOAD PUSH4 0x2751ED27 PUSH1 0xE2 SHL DUP2 MSTORE SWAP3 SWAP4 POP PUSH0 SWAP3 PUSH1 0x1 PUSH1 0x1 PUSH1 0xA0 SHL SUB SWAP1 SWAP3 AND SWAP2 PUSH4 0x9D47B49C SWAP2 PUSH2 0x1FB SWAP2 PUSH1 0x4 ADD SWAP1 DUP2 MSTORE PUSH1 0x20 ADD SWAP1 JUMP JUMPDEST PUSH0 PUSH1 0x40 MLOAD DUP1 DUP4 SUB DUP2 DUP7 GAS STATICCALL ISZERO DUP1 ISZERO PUSH2 0x215 JUMPI RETURNDATASIZE PUSH0 DUP1 RETURNDATACOPY RETURNDATASIZE PUSH0 REVERT JUMPDEST POP POP POP POP PUSH1 0x40 MLOAD RETURNDATASIZE PUSH0 DUP3 RETURNDATACOPY PUSH1 0x1F RETURNDATASIZE SWAP1 DUP2 ADD PUSH1 0x1F NOT AND DUP3 ADD PUSH1 0x40 MSTORE PUSH2 0x23C SWAP2 SWAP1 DUP2 ADD SWAP1 PUSH2 0x1A40 JUMP JUMPDEST SWAP1 POP PUSH0 PUSH2 0x248 DUP7 PUSH2 0x1028 JUMP JUMPDEST SWAP1 POP PUSH2 0x25D DUP6 DUP4 PUSH1 0x40 ADD MLOAD DUP5 PUSH1 0x60 ADD MLOAD PUSH2 0x10CB JUMP JUMPDEST ISZERO PUSH2 0x267 JUMPI PUSH1 0x1 SWAP4 POP JUMPDEST PUSH1 0x40 DUP1 MLOAD DUP1 DUP3 ADD SWAP1 SWAP2 MSTORE PUSH1 0xE DUP2 MSTORE PUSH14 0x1058D8D95CDCC814995C5D595CDD PUSH1 0x92 SHL PUSH1 0x20 DUP3 ADD MSTORE PUSH0 PUSH2 0x296 DUP11 PUSH2 0x1128 JUMP JUMPDEST DUP4 PUSH1 0x40 MLOAD PUSH1 0x20 ADD PUSH2 0x2A8 SWAP3 SWAP2 SWAP1 PUSH2 0x1B16 JUMP JUMPDEST PUSH1 0x40 DUP1 MLOAD PUSH1 0x1F NOT DUP2 DUP5 SUB ADD DUP2 MSTORE SWAP1 DUP3 SWAP1 MSTORE PUSH0 SLOAD PUSH4 0x12FF157B PUSH1 0xE3 SHL DUP4 MSTORE SWAP1 SWAP3 POP PUSH1 0x1 PUSH1 0x1 PUSH1 0xA0 SHL SUB AND SWAP1 PUSH4 0x97F8ABD8 SWAP1 PUSH2 0x2E8 SWAP1 DUP6 SWAP1 DUP6 SWAP1 PUSH1 0x4 ADD PUSH2 0x1B8D JUMP JUMPDEST PUSH0 PUSH1 0x40 MLOAD DUP1 DUP4 SUB DUP2 PUSH0 DUP8 DUP1 EXTCODESIZE ISZERO DUP1 ISZERO PUSH2 0x2FF JUMPI PUSH0 DUP1 REVERT JUMPDEST POP GAS CALL ISZERO DUP1 ISZERO PUSH2 0x311 JUMPI RETURNDATASIZE PUSH0 DUP1 RETURNDATACOPY RETURNDATASIZE PUSH0 REVERT JUMPDEST POP POP POP POP PUSH1 0x40 MLOAD DUP1 PUSH1 0x40 ADD PUSH1 0x40 MSTORE DUP1 PUSH1 0x3 DUP2 MSTORE PUSH1 0x20 ADD PUSH3 0x50495 PUSH1 0xEC SHL DUP2 MSTORE POP SWAP2 POP PUSH2 0x33C DUP11 PUSH2 0x1128 JUMP JUMPDEST DUP6 PUSH1 0x20 ADD MLOAD PUSH2 0x34E DUP8 PUSH1 0x40 ADD MLOAD PUSH2 0x124D JUMP JUMPDEST PUSH1 0x40 MLOAD PUSH1 0x20 ADD PUSH2 0x360 SWAP4 SWAP3 SWAP2 SWAP1 PUSH2 0x1BB1 JUMP JUMPDEST PUSH1 0x40 DUP1 MLOAD PUSH1 0x1F NOT DUP2 DUP5 SUB ADD DUP2 MSTORE SWAP1 DUP3 SWAP1 MSTORE PUSH0 SLOAD PUSH4 0x12FF157B PUSH1 0xE3 SHL DUP4 MSTORE SWAP1 SWAP3 POP PUSH1 0x1 PUSH1 0x1 PUSH1 0xA0 SHL SUB AND SWAP1 PUSH4 0x97F8ABD8 SWAP1 PUSH2 0x3A0 SWAP1 DUP6 SWAP1 DUP6 SWAP1 PUSH1 0x4 ADD PUSH2 0x1B8D JUMP JUMPDEST PUSH0 PUSH1 0x40 MLOAD DUP1 DUP4 SUB DUP2 PUSH0 DUP8 DUP1 EXTCODESIZE ISZERO DUP1 ISZERO PUSH2 0x3B7 JUMPI PUSH0 DUP1 REVERT JUMPDEST POP GAS CALL ISZERO DUP1 ISZERO PUSH2 0x3C9 JUMPI RETURNDATASIZE PUSH0 DUP1 RETURNDATACOPY RETURNDATASIZE PUSH0 REVERT JUMPDEST POP POP POP POP PUSH1 0x40 MLOAD DUP1 PUSH1 0x40 ADD PUSH1 0x40 MSTORE DUP1 PUSH1 0x3 DUP2 MSTORE PUSH1 0x20 ADD PUSH3 0x50525 PUSH1 0xEC SHL DUP2 MSTORE POP SWAP2 POP PUSH2 0x3F8 DUP5 PUSH1 0x20 ADD MLOAD PUSH2 0x124D JUMP JUMPDEST DUP5 PUSH1 0x40 ADD MLOAD DUP6 PUSH1 0x60 ADD MLOAD PUSH1 0x40 MLOAD PUSH1 0x20 ADD PUSH2 0x414 SWAP4 SWAP3 SWAP2 SWAP1 PUSH2 0x1C0C JUMP JUMPDEST PUSH1 0x40 DUP1 MLOAD PUSH1 0x1F NOT DUP2 DUP5 SUB ADD DUP2 MSTORE SWAP1 DUP3 SWAP1 MSTORE PUSH0 SLOAD PUSH4 0x12FF157B PUSH1 0xE3 SHL DUP4 MSTORE SWAP1 SWAP3 POP PUSH1 0x1 PUSH1 0x1 PUSH1 0xA0 SHL SUB AND SWAP1 PUSH4 0x97F8ABD8 SWAP1 PUSH2 0x454 SWAP1 DUP6 SWAP1 DUP6 SWAP1 PUSH1 0x4 ADD PUSH2 0x1B8D JUMP JUMPDEST PUSH0 PUSH1 0x40 MLOAD DUP1 DUP4 SUB DUP2 PUSH0 DUP8 DUP1 EXTCODESIZE ISZERO DUP1 ISZERO PUSH2 0x46B JUMPI PUSH0 DUP1 REVERT JUMPDEST POP GAS CALL ISZERO DUP1 ISZERO PUSH2 0x47D JUMPI RETURNDATASIZE PUSH0 DUP1 RETURNDATACOPY RETURNDATASIZE PUSH0 REVERT JUMPDEST POP POP POP POP PUSH1 0x40 MLOAD DUP1 PUSH1 0x40 ADD PUSH1 0x40 MSTORE DUP1 PUSH1 0x3 DUP2 MSTORE PUSH1 0x20 ADD PUSH3 0x50445 PUSH1 0xEC SHL DUP2 MSTORE POP SWAP2 POP DUP6 PUSH2 0x4C8 JUMPI PUSH1 0x40 MLOAD DUP1 PUSH1 0x40 ADD PUSH1 0x40 MSTORE DUP1 PUSH1 0x6 DUP2 MSTORE PUSH1 0x20 ADD PUSH6 0x11195B9A5959 PUSH1 0xD2 SHL DUP2 MSTORE POP PUSH2 0x4E8 JUMP JUMPDEST PUSH1 0x40 MLOAD DUP1 PUSH1 0x40 ADD PUSH1 0x40 MSTORE DUP1 PUSH1 0x6 DUP2 MSTORE PUSH1 0x20 ADD PUSH6 0x14185CDCD959 PUSH1 0xD2 SHL DUP2 MSTORE POP JUMPDEST PUSH1 0x40 MLOAD PUSH1 0x20 ADD PUSH2 0x4F8 SWAP2 SWAP1 PUSH2 0x1C66 JUMP JUMPDEST PUSH1 0x40 DUP1 MLOAD PUSH1 0x1F NOT DUP2 DUP5 SUB ADD DUP2 MSTORE SWAP1 DUP3 SWAP1 MSTORE PUSH0 SLOAD PUSH4 0x12FF157B PUSH1 0xE3 SHL DUP4 MSTORE SWAP1 SWAP3 POP PUSH1 0x1 PUSH1 0x1 PUSH1 0xA0 SHL SUB AND SWAP1 PUSH4 0x97F8ABD8 SWAP1 PUSH2 0x538 SWAP1 DUP6 SWAP1 DUP6 SWAP1 PUSH1 0x4 ADD PUSH2 0x1B8D JUMP JUMPDEST PUSH0 PUSH1 0x40 MLOAD DUP1 DUP4 SUB DUP2 PUSH0 DUP8 DUP1 EXTCODESIZE ISZERO DUP1 ISZERO PUSH2 0x54F JUMPI PUSH0 DUP1 REVERT JUMPDEST POP GAS CALL ISZERO DUP1 ISZERO PUSH2 0x561 JUMPI RETURNDATASIZE PUSH0 DUP1 RETURNDATACOPY RETURNDATASIZE PUSH0 REVERT JUMPDEST POP POP POP POP DUP10 PUSH0 DUP1 MLOAD PUSH1 0x20 PUSH2 0x1DDA DUP4 CODECOPY DUP2 MLOAD SWAP2 MSTORE DUP8 PUSH1 0x40 MLOAD PUSH2 0x586 SWAP2 ISZERO ISZERO DUP2 MSTORE PUSH1 0x20 ADD SWAP1 JUMP JUMPDEST PUSH1 0x40 MLOAD DUP1 SWAP2 SUB SWAP1 LOG2 POP SWAP4 SWAP9 SWAP8 POP POP POP POP POP POP POP POP JUMP JUMPDEST PUSH0 DUP1 PUSH2 0x5AA PUSH2 0x2A30 TIMESTAMP PUSH2 0x1924 JUMP JUMPDEST SWAP1 POP PUSH0 PUSH2 0x5BA PUSH3 0x15180 DUP4 PUSH2 0x194B JUMP JUMPDEST SWAP1 POP PUSH0 DUP1 PUSH2 0x5C7 DUP5 PUSH2 0x1028 JUMP JUMPDEST SWAP1 POP PUSH2 0x5D4 DUP4 DUP9 DUP9 PUSH2 0x10CB JUMP JUMPDEST ISZERO PUSH2 0x5DE JUMPI PUSH1 0x1 SWAP2 POP JUMPDEST PUSH1 0x40 DUP1 MLOAD DUP1 DUP3 ADD SWAP1 SWAP2 MSTORE PUSH1 0xE DUP2 MSTORE PUSH14 0x1058D8D95CDCC814995C5D595CDD PUSH1 0x92 SHL PUSH1 0x20 DUP3 ADD MSTORE PUSH0 PUSH2 0x60D DUP13 PUSH2 0x1128 JUMP JUMPDEST DUP4 PUSH1 0x40 MLOAD PUSH1 0x20 ADD PUSH2 0x61F SWAP3 SWAP2 SWAP1 PUSH2 0x1C84 JUMP JUMPDEST PUSH1 0x40 DUP1 MLOAD PUSH1 0x1F NOT DUP2 DUP5 SUB ADD DUP2 MSTORE SWAP1 DUP3 SWAP1 MSTORE PUSH0 SLOAD PUSH4 0x12FF157B PUSH1 0xE3 SHL DUP4 MSTORE SWAP1 SWAP3 POP PUSH1 0x1 PUSH1 0x1 PUSH1 0xA0 SHL SUB AND SWAP1 PUSH4 0x97F8ABD8 SWAP1 PUSH2 0x65F SWAP1 DUP6 SWAP1 DUP6 SWAP1 PUSH1 0x4 ADD PUSH2 0x1B8D JUMP JUMPDEST PUSH0 PUSH1 0x40 MLOAD DUP1 DUP4 SUB DUP2 PUSH0 DUP8 DUP1 EXTCODESIZE ISZERO DUP1 ISZERO PUSH2 0x676 JUMPI PUSH0 DUP1 REVERT JUMPDEST POP GAS CALL ISZERO DUP1 ISZERO PUSH2 0x688 JUMPI RETURNDATASIZE PUSH0 DUP1 RETURNDATACOPY RETURNDATASIZE PUSH0 REVERT JUMPDEST POP POP POP POP PUSH1 0x40 MLOAD DUP1 PUSH1 0x40 ADD PUSH1 0x40 MSTORE DUP1 PUSH1 0x3 DUP2 MSTORE PUSH1 0x20 ADD PUSH3 0x50495 PUSH1 0xEC SHL DUP2 MSTORE POP SWAP2 POP PUSH2 0x6B3 DUP13 PUSH2 0x1128 JUMP JUMPDEST DUP12 PUSH2 0x6BD DUP13 PUSH2 0x124D JUMP JUMPDEST PUSH1 0x40 MLOAD PUSH1 0x20 ADD PUSH2 0x6CF SWAP4 SWAP3 SWAP2 SWAP1 PUSH2 0x1BB1 JUMP JUMPDEST PUSH1 0x40 DUP1 MLOAD PUSH1 0x1F NOT DUP2 DUP5 SUB ADD DUP2 MSTORE SWAP1 DUP3 SWAP1 MSTORE PUSH0 SLOAD PUSH4 0x12FF157B PUSH1 0xE3 SHL DUP4 MSTORE SWAP1 SWAP3 POP PUSH1 0x1 PUSH1 0x1 PUSH1 0xA0 SHL SUB AND SWAP1 PUSH4 0x97F8ABD8 SWAP1 PUSH2 0x70F SWAP1 DUP6 SWAP1 DUP6 SWAP1 PUSH1 0x4 ADD PUSH2 0x1B8D JUMP JUMPDEST PUSH0 PUSH1 0x40 MLOAD DUP1 DUP4 SUB DUP2 PUSH0 DUP8 DUP1 EXTCODESIZE ISZERO DUP1 ISZERO PUSH2 0x726 JUMPI PUSH0 DUP1 REVERT JUMPDEST POP GAS CALL ISZERO DUP1 ISZERO PUSH2 0x738 JUMPI RETURNDATASIZE PUSH0 DUP1 RETURNDATACOPY RETURNDATASIZE PUSH0 REVERT JUMPDEST POP POP POP POP PUSH1 0x40 MLOAD DUP1 PUSH1 0x40 ADD PUSH1 0x40 MSTORE DUP1 PUSH1 0x3 DUP2 MSTORE PUSH1 0x20 ADD PUSH3 0x50525 PUSH1 0xEC SHL DUP2 MSTORE POP SWAP2 POP PUSH2 0x763 DUP11 PUSH2 0x124D JUMP JUMPDEST DUP10 DUP10 PUSH1 0x40 MLOAD PUSH1 0x20 ADD PUSH2 0x777 SWAP4 SWAP3 SWAP2 SWAP1 PUSH2 0x1C0C JUMP JUMPDEST PUSH1 0x40 DUP1 MLOAD PUSH1 0x1F NOT DUP2 DUP5 SUB ADD DUP2 MSTORE SWAP1 DUP3 SWAP1 MSTORE PUSH0 SLOAD PUSH4 0x12FF157B PUSH1 0xE3 SHL DUP4 MSTORE SWAP1 SWAP3 POP PUSH1 0x1 PUSH1 0x1 PUSH1 0xA0 SHL SUB AND SWAP1 PUSH4 0x97F8ABD8 SWAP1 PUSH2 0x7B7 SWAP1 DUP6 SWAP1 DUP6 SWAP1 PUSH1 0x4 ADD PUSH2 0x1B8D JUMP JUMPDEST PUSH0 PUSH1 0x40 MLOAD DUP1 DUP4 SUB DUP2 PUSH0 DUP8 DUP1 EXTCODESIZE ISZERO DUP1 ISZERO PUSH2 0x7CE JUMPI PUSH0 DUP1 REVERT JUMPDEST POP GAS CALL ISZERO DUP1 ISZERO PUSH2 0x7E0 JUMPI RETURNDATASIZE PUSH0 DUP1 RETURNDATACOPY RETURNDATASIZE PUSH0 REVERT JUMPDEST POP POP POP POP PUSH1 0x40 MLOAD DUP1 PUSH1 0x40 ADD PUSH1 0x40 MSTORE DUP1 PUSH1 0x3 DUP2 MSTORE PUSH1 0x20 ADD PUSH3 0x50445 PUSH1 0xEC SHL DUP2 MSTORE POP SWAP2 POP DUP4 PUSH2 0x82B JUMPI PUSH1 0x40 MLOAD DUP1 PUSH1 0x40 ADD PUSH1 0x40 MSTORE DUP1 PUSH1 0x6 DUP2 MSTORE PUSH1 0x20 ADD PUSH6 0x11195B9A5959 PUSH1 0xD2 SHL DUP2 MSTORE POP PUSH2 0x84B JUMP JUMPDEST PUSH1 0x40 MLOAD DUP1 PUSH1 0x40 ADD PUSH1 0x40 MSTORE DUP1 PUSH1 0x6 DUP2 MSTORE PUSH1 0x20 ADD PUSH6 0x14185CDCD959 PUSH1 0xD2 SHL DUP2 MSTORE POP JUMPDEST PUSH1 0x40 MLOAD PUSH1 0x20 ADD PUSH2 0x85B SWAP2 SWAP1 PUSH2 0x1C66 JUMP JUMPDEST PUSH1 0x40 DUP1 MLOAD PUSH1 0x1F NOT DUP2 DUP5 SUB ADD DUP2 MSTORE SWAP1 DUP3 SWAP1 MSTORE PUSH0 SLOAD PUSH4 0x12FF157B PUSH1 0xE3 SHL DUP4 MSTORE SWAP1 SWAP3 POP PUSH1 0x1 PUSH1 0x1 PUSH1 0xA0 SHL SUB AND SWAP1 PUSH4 0x97F8ABD8 SWAP1 PUSH2 0x89B SWAP1 DUP6 SWAP1 DUP6 SWAP1 PUSH1 0x4 ADD PUSH2 0x1B8D JUMP JUMPDEST PUSH0 PUSH1 0x40 MLOAD DUP1 DUP4 SUB DUP2 PUSH0 DUP8 DUP1 EXTCODESIZE ISZERO DUP1 ISZERO PUSH2 0x8B2 JUMPI PUSH0 DUP1 REVERT JUMPDEST POP GAS CALL ISZERO DUP1 ISZERO PUSH2 0x8C4 JUMPI RETURNDATASIZE PUSH0 DUP1 RETURNDATACOPY RETURNDATASIZE PUSH0 REVERT JUMPDEST POP POP POP POP DUP12 PUSH0 DUP1 MLOAD PUSH1 0x20 PUSH2 0x1DDA DUP4 CODECOPY DUP2 MLOAD SWAP2 MSTORE DUP6 PUSH1 0x40 MLOAD PUSH2 0x8E9 SWAP2 ISZERO ISZERO DUP2 MSTORE PUSH1 0x20 ADD SWAP1 JUMP JUMPDEST PUSH1 0x40 MLOAD DUP1 SWAP2 SUB SWAP1 LOG2 POP SWAP2 SWAP11 SWAP10 POP POP POP POP POP POP POP POP POP POP JUMP JUMPDEST PUSH0 DUP1 PUSH2 0x90F PUSH2 0x2A30 TIMESTAMP PUSH2 0x1924 JUMP JUMPDEST SWAP1 POP PUSH0 PUSH2 0x91F PUSH3 0x15180 DUP4 PUSH2 0x194B JUMP JUMPDEST PUSH1 0x1 SLOAD PUSH1 0x40 MLOAD PUSH4 0x2751ED27 PUSH1 0xE2 SHL DUP2 MSTORE PUSH1 0x4 DUP2 ADD DUP8 SWAP1 MSTORE SWAP2 SWAP3 POP PUSH0 SWAP2 DUP3 SWAP2 PUSH1 0x1 PUSH1 0x1 PUSH1 0xA0 SHL SUB AND SWAP1 PUSH4 0x9D47B49C SWAP1 PUSH1 0x24 ADD PUSH0 PUSH1 0x40 MLOAD DUP1 DUP4 SUB DUP2 DUP7 GAS STATICCALL ISZERO DUP1 ISZERO PUSH2 0x96A JUMPI RETURNDATASIZE PUSH0 DUP1 RETURNDATACOPY RETURNDATASIZE PUSH0 REVERT JUMPDEST POP POP POP POP PUSH1 0x40 MLOAD RETURNDATASIZE PUSH0 DUP3 RETURNDATACOPY PUSH1 0x1F RETURNDATASIZE SWAP1 DUP2 ADD PUSH1 0x1F NOT AND DUP3 ADD PUSH1 0x40 MSTORE PUSH2 0x991 SWAP2 SWAP1 DUP2 ADD SWAP1 PUSH2 0x1A40 JUMP JUMPDEST SWAP1 POP PUSH0 PUSH2 0x99D DUP6 PUSH2 0x1028 JUMP JUMPDEST SWAP1 POP PUSH2 0x9B2 DUP5 DUP4 PUSH1 0x40 ADD MLOAD DUP5 PUSH1 0x60 ADD MLOAD PUSH2 0x10CB JUMP JUMPDEST ISZERO PUSH2 0x9BC JUMPI PUSH1 0x1 SWAP3 POP JUMPDEST PUSH1 0x40 DUP1 MLOAD DUP1 DUP3 ADD SWAP1 SWAP2 MSTORE PUSH1 0xE DUP2 MSTORE PUSH14 0x1058D8D95CDCC814995C5D595CDD PUSH1 0x92 SHL PUSH1 0x20 DUP3 ADD MSTORE PUSH0 PUSH2 0x9EB DUP12 PUSH2 0x1128 JUMP JUMPDEST DUP4 PUSH1 0x40 MLOAD PUSH1 0x20 ADD PUSH2 0x9FD SWAP3 SWAP2 SWAP1 PUSH2 0x1CA9 JUMP JUMPDEST PUSH1 0x40 DUP1 MLOAD PUSH1 0x1F NOT DUP2 DUP5 SUB ADD DUP2 MSTORE SWAP1 DUP3 SWAP1 MSTORE PUSH0 SLOAD PUSH4 0x12FF157B PUSH1 0xE3 SHL DUP4 MSTORE SWAP1 SWAP3 POP PUSH1 0x1 PUSH1 0x1 PUSH1 0xA0 SHL SUB AND SWAP1 PUSH4 0x97F8ABD8 SWAP1 PUSH2 0xA3D SWAP1 DUP6 SWAP1 DUP6 SWAP1 PUSH1 0x4 ADD PUSH2 0x1B8D JUMP JUMPDEST PUSH0 PUSH1 0x40 MLOAD DUP1 DUP4 SUB DUP2 PUSH0 DUP8 DUP1 EXTCODESIZE ISZERO DUP1 ISZERO PUSH2 0xA54 JUMPI PUSH0 DUP1 REVERT JUMPDEST POP GAS CALL ISZERO DUP1 ISZERO PUSH2 0xA66 JUMPI RETURNDATASIZE PUSH0 DUP1 RETURNDATACOPY RETURNDATASIZE PUSH0 REVERT JUMPDEST POP POP POP POP PUSH1 0x40 MLOAD DUP1 PUSH1 0x40 ADD PUSH1 0x40 MSTORE DUP1 PUSH1 0x3 DUP2 MSTORE PUSH1 0x20 ADD PUSH3 0x50495 PUSH1 0xEC SHL DUP2 MSTORE POP SWAP2 POP PUSH2 0xA91 DUP12 PUSH2 0x1128 JUMP JUMPDEST DUP11 PUSH2 0xA9B DUP12 PUSH2 0x124D JUMP JUMPDEST PUSH1 0x40 MLOAD PUSH1 0x20 ADD PUSH2 0xAAD SWAP4 SWAP3 SWAP2 SWAP1 PUSH2 0x1BB1 JUMP JUMPDEST PUSH1 0x40 DUP1 MLOAD PUSH1 0x1F NOT DUP2 DUP5 SUB ADD DUP2 MSTORE SWAP1 DUP3 SWAP1 MSTORE PUSH0 SLOAD PUSH4 0x12FF157B PUSH1 0xE3 SHL DUP4 MSTORE SWAP1 SWAP3 POP PUSH1 0x1 PUSH1 0x1 PUSH1 0xA0 SHL SUB AND SWAP1 PUSH4 0x97F8ABD8 SWAP1 PUSH2 0xAED SWAP1 DUP6 SWAP1 DUP6 SWAP1 PUSH1 0x4 ADD PUSH2 0x1B8D JUMP JUMPDEST PUSH0 PUSH1 0x40 MLOAD DUP1 DUP4 SUB DUP2 PUSH0 DUP8 DUP1 EXTCODESIZE ISZERO DUP1 ISZERO PUSH2 0xB04 JUMPI PUSH0 DUP1 REVERT JUMPDEST POP GAS CALL ISZERO DUP1 ISZERO PUSH2 0xB16 JUMPI RETURNDATASIZE PUSH0 DUP1 RETURNDATACOPY RETURNDATASIZE PUSH0 REVERT JUMPDEST POP POP POP POP PUSH1 0x40 MLOAD DUP1 PUSH1 0x40 ADD PUSH1 0x40 MSTORE DUP1 PUSH1 0x3 DUP2 MSTORE PUSH1 0x20 ADD PUSH3 0x50525 PUSH1 0xEC SHL DUP2 MSTORE POP SWAP2 POP PUSH2 0xB45 DUP5 PUSH1 0x20 ADD MLOAD PUSH2 0x124D JUMP JUMPDEST DUP5 PUSH1 0x40 ADD MLOAD DUP6 PUSH1 0x60 ADD MLOAD PUSH1 0x40 MLOAD PUSH1 0x20 ADD PUSH2 0xB61 SWAP4 SWAP3 SWAP2 SWAP1 PUSH2 0x1C0C JUMP JUMPDEST PUSH1 0x40 DUP1 MLOAD PUSH1 0x1F NOT DUP2 DUP5 SUB ADD DUP2 MSTORE SWAP1 DUP3 SWAP1 MSTORE PUSH0 SLOAD PUSH4 0x12FF157B PUSH1 0xE3 SHL DUP4 MSTORE SWAP1 SWAP3 POP PUSH1 0x1 PUSH1 0x1 PUSH1 0xA0 SHL SUB AND SWAP1 PUSH4 0x97F8ABD8 SWAP1 PUSH2 0xBA1 SWAP1 DUP6 SWAP1 DUP6 SWAP1 PUSH1 0x4 ADD PUSH2 0x1B8D JUMP JUMPDEST PUSH0 PUSH1 0x40 MLOAD DUP1 DUP4 SUB DUP2 PUSH0 DUP8 DUP1 EXTCODESIZE ISZERO DUP1 ISZERO PUSH2 0xBB8 JUMPI PUSH0 DUP1 REVERT JUMPDEST POP GAS CALL ISZERO DUP1 ISZERO PUSH2 0xBCA JUMPI RETURNDATASIZE PUSH0 DUP1 RETURNDATACOPY RETURNDATASIZE PUSH0 REVERT JUMPDEST POP POP POP POP PUSH1 0x40 MLOAD DUP1 PUSH1 0x40 ADD PUSH1 0x40 MSTORE DUP1 PUSH1 0x3 DUP2 MSTORE PUSH1 0x20 ADD PUSH3 0x50445 PUSH1 0xEC SHL DUP2 MSTORE POP SWAP2 POP DUP5 PUSH2 0xC15 JUMPI PUSH1 0x40 MLOAD DUP1 PUSH1 0x40 ADD PUSH1 0x40 MSTORE DUP1 PUSH1 0x6 DUP2 MSTORE PUSH1 0x20 ADD PUSH6 0x11195B9A5959 PUSH1 0xD2 SHL DUP2 MSTORE POP PUSH2 0xC35 JUMP JUMPDEST PUSH1 0x40 MLOAD DUP1 PUSH1 0x40 ADD PUSH1 0x40 MSTORE DUP1 PUSH1 0x6 DUP2 MSTORE PUSH1 0x20 ADD PUSH6 0x14185CDCD959 PUSH1 0xD2 SHL DUP2 MSTORE POP JUMPDEST PUSH1 0x40 MLOAD PUSH1 0x20 ADD PUSH2 0xC45 SWAP2 SWAP1 PUSH2 0x1C66 JUMP JUMPDEST PUSH1 0x40 DUP1 MLOAD PUSH1 0x1F NOT DUP2 DUP5 SUB ADD DUP2 MSTORE SWAP1 DUP3 SWAP1 MSTORE PUSH0 SLOAD PUSH4 0x12FF157B PUSH1 0xE3 SHL DUP4 MSTORE SWAP1 SWAP3 POP PUSH1 0x1 PUSH1 0x1 PUSH1 0xA0 SHL SUB AND SWAP1 PUSH4 0x97F8ABD8 SWAP1 PUSH2 0xC85 SWAP1 DUP6 SWAP1 DUP6 SWAP1 PUSH1 0x4 ADD PUSH2 0x1B8D JUMP JUMPDEST PUSH0 PUSH1 0x40 MLOAD DUP1 DUP4 SUB DUP2 PUSH0 DUP8 DUP1 EXTCODESIZE ISZERO DUP1 ISZERO PUSH2 0xC9C JUMPI PUSH0 DUP1 REVERT JUMPDEST POP GAS CALL ISZERO DUP1 ISZERO PUSH2 0xCAE JUMPI RETURNDATASIZE PUSH0 DUP1 RETURNDATACOPY RETURNDATASIZE PUSH0 REVERT JUMPDEST POP POP POP POP DUP11 PUSH0 DUP1 MLOAD PUSH1 0x20 PUSH2 0x1DDA DUP4 CODECOPY DUP2 MLOAD SWAP2 MSTORE DUP7 PUSH1 0x40 MLOAD PUSH2 0xCD3 SWAP2 ISZERO ISZERO DUP2 MSTORE PUSH1 0x20 ADD SWAP1 JUMP JUMPDEST PUSH1 0x40 MLOAD DUP1 SWAP2 SUB SWAP1 LOG2 POP SWAP3 SWAP6 POP POP POP POP POP POP JUMPDEST SWAP4 SWAP3 POP POP POP JUMP JUMPDEST PUSH0 DUP1 PUSH2 0xCFA PUSH2 0x2A30 TIMESTAMP PUSH2 0x1924 JUMP JUMPDEST SWAP1 POP PUSH0 PUSH2 0xD06 DUP3 PUSH2 0x1028 JUMP JUMPDEST PUSH1 0x40 DUP1 MLOAD DUP1 DUP3 ADD SWAP1 SWAP2 MSTORE PUSH1 0xE DUP2 MSTORE PUSH14 0x1058D8D95CDCC814995C5D595CDD PUSH1 0x92 SHL PUSH1 0x20 DUP3 ADD MSTORE SWAP1 SWAP2 POP PUSH0 PUSH2 0xD38 DUP12 PUSH2 0x1128 JUMP JUMPDEST DUP4 PUSH1 0x40 MLOAD PUSH1 0x20 ADD PUSH2 0xD4A SWAP3 SWAP2 SWAP1 PUSH2 0x1CCE JUMP JUMPDEST PUSH1 0x40 DUP1 MLOAD PUSH1 0x1F NOT DUP2 DUP5 SUB ADD DUP2 MSTORE SWAP1 DUP3 SWAP1 MSTORE PUSH0 SLOAD PUSH4 0x12FF157B PUSH1 0xE3 SHL DUP4 MSTORE SWAP1 SWAP3 POP PUSH1 0x1 PUSH1 0x1 PUSH1 0xA0 SHL SUB AND SWAP1 PUSH4 0x97F8ABD8 SWAP1 PUSH2 0xD8A SWAP1 DUP6 SWAP1 DUP6 SWAP1 PUSH1 0x4 ADD PUSH2 0x1B8D JUMP JUMPDEST PUSH0 PUSH1 0x40 MLOAD DUP1 DUP4 SUB DUP2 PUSH0 DUP8 DUP1 EXTCODESIZE ISZERO DUP1 ISZERO PUSH2 0xDA1 JUMPI PUSH0 DUP1 REVERT JUMPDEST POP GAS CALL ISZERO DUP1 ISZERO PUSH2 0xDB3 JUMPI RETURNDATASIZE PUSH0 DUP1 RETURNDATACOPY RETURNDATASIZE PUSH0 REVERT JUMPDEST POP POP POP POP PUSH1 0x40 MLOAD DUP1 PUSH1 0x40 ADD PUSH1 0x40 MSTORE DUP1 PUSH1 0x3 DUP2 MSTORE PUSH1 0x20 ADD PUSH3 0x50495 PUSH1 0xEC SHL DUP2 MSTORE POP SWAP2 POP PUSH2 0xDDE DUP12 PUSH2 0x1128 JUMP JUMPDEST DUP11 PUSH2 0xDE8 DUP12 PUSH2 0x124D JUMP JUMPDEST PUSH1 0x40 MLOAD PUSH1 0x20 ADD PUSH2 0xDFA SWAP4 SWAP3 SWAP2 SWAP1 PUSH2 0x1BB1 JUMP JUMPDEST PUSH1 0x40 DUP1 MLOAD PUSH1 0x1F NOT DUP2 DUP5 SUB ADD DUP2 MSTORE SWAP1 DUP3 SWAP1 MSTORE PUSH0 SLOAD PUSH4 0x12FF157B PUSH1 0xE3 SHL DUP4 MSTORE SWAP1 SWAP3 POP PUSH1 0x1 PUSH1 0x1 PUSH1 0xA0 SHL SUB AND SWAP1 PUSH4 0x97F8ABD8 SWAP1 PUSH2 0xE3A SWAP1 DUP6 SWAP1 DUP6 SWAP1 PUSH1 0x4 ADD PUSH2 0x1B8D JUMP JUMPDEST PUSH0 PUSH1 0x40 MLOAD DUP1 DUP4 SUB DUP2 PUSH0 DUP8 DUP1 EXTCODESIZE ISZERO DUP1 ISZERO PUSH2 0xE51 JUMPI PUSH0 DUP1 REVERT JUMPDEST POP GAS CALL ISZERO DUP1 ISZERO PUSH2 0xE63 JUMPI RETURNDATASIZE PUSH0 DUP1 RETURNDATACOPY RETURNDATASIZE PUSH0 REVERT JUMPDEST POP POP POP POP PUSH1 0x40 MLOAD DUP1 PUSH1 0x40 ADD PUSH1 0x40 MSTORE DUP1 PUSH1 0x3 DUP2 MSTORE PUSH1 0x20 ADD PUSH3 0x50525 PUSH1 0xEC SHL DUP2 MSTORE POP SWAP2 POP PUSH2 0xE8E DUP10 PUSH2 0x124D JUMP JUMPDEST DUP9 DUP9 PUSH1 0x40 MLOAD PUSH1 0x20 ADD PUSH2 0xEA2 SWAP4 SWAP3 SWAP2 SWAP1 PUSH2 0x1C0C JUMP JUMPDEST PUSH1 0x40 DUP1 MLOAD PUSH1 0x1F NOT DUP2 DUP5 SUB ADD DUP2 MSTORE SWAP1 DUP3 SWAP1 MSTORE PUSH0 SLOAD PUSH4 0x12FF157B PUSH1 0xE3 SHL DUP4 MSTORE SWAP1 SWAP3 POP PUSH1 0x1 PUSH1 0x1 PUSH1 0xA0 SHL SUB AND SWAP1 PUSH4 0x97F8ABD8 SWAP1 PUSH2 0xEE2 SWAP1 DUP6 SWAP1 DUP6 SWAP1 PUSH1 0x4 ADD PUSH2 0x1B8D JUMP JUMPDEST PUSH0 PUSH1 0x40 MLOAD DUP1 DUP4 SUB DUP2 PUSH0 DUP8 DUP1 EXTCODESIZE ISZERO DUP1 ISZERO PUSH2 0xEF9 JUMPI PUSH0 DUP1 REVERT JUMPDEST POP GAS CALL ISZERO DUP1 ISZERO PUSH2 0xF0B JUMPI RETURNDATASIZE PUSH0 DUP1 RETURNDATACOPY RETURNDATASIZE PUSH0 REVERT JUMPDEST POP POP POP POP PUSH1 0x40 MLOAD DUP1 PUSH1 0x40 ADD PUSH1 0x40 MSTORE DUP1 PUSH1 0x3 DUP2 MSTORE PUSH1 0x20 ADD PUSH3 0x50445 PUSH1 0xEC SHL DUP2 MSTORE POP SWAP2 POP DUP6 PUSH2 0xF56 JUMPI PUSH1 0x40 MLOAD DUP1 PUSH1 0x40 ADD PUSH1 0x40 MSTORE DUP1 PUSH1 0x6 DUP2 MSTORE PUSH1 0x20 ADD PUSH6 0x11195B9A5959 PUSH1 0xD2 SHL DUP2 MSTORE POP PUSH2 0xF76 JUMP JUMPDEST PUSH1 0x40 MLOAD DUP1 PUSH1 0x40 ADD PUSH1 0x40 MSTORE DUP1 PUSH1 0x6 DUP2 MSTORE PUSH1 0x20 ADD PUSH6 0x14185CDCD959 PUSH1 0xD2 SHL DUP2 MSTORE POP JUMPDEST PUSH1 0x40 MLOAD PUSH1 0x20 ADD PUSH2 0xF86 SWAP2 SWAP1 PUSH2 0x1C66 JUMP JUMPDEST PUSH1 0x40 DUP1 MLOAD PUSH1 0x1F NOT DUP2 DUP5 SUB ADD DUP2 MSTORE SWAP1 DUP3 SWAP1 MSTORE PUSH0 SLOAD PUSH4 0x12FF157B PUSH1 0xE3 SHL DUP4 MSTORE SWAP1 SWAP3 POP PUSH1 0x1 PUSH1 0x1 PUSH1 0xA0 SHL SUB AND SWAP1 PUSH4 0x97F8ABD8 SWAP1 PUSH2 0xFC6 SWAP1 DUP6 SWAP1 DUP6 SWAP1 PUSH1 0x4 ADD PUSH2 0x1B8D JUMP JUMPDEST PUSH0 PUSH1 0x40 MLOAD DUP1 DUP4 SUB DUP2 PUSH0 DUP8 DUP1 EXTCODESIZE ISZERO DUP1 ISZERO PUSH2 0xFDD JUMPI PUSH0 DUP1 REVERT JUMPDEST POP GAS CALL ISZERO DUP1 ISZERO PUSH2 0xFEF JUMPI RETURNDATASIZE PUSH0 DUP1 RETURNDATACOPY RETURNDATASIZE PUSH0 REVERT JUMPDEST POP POP PUSH1 0x40 MLOAD DUP9 ISZERO ISZERO DUP2 MSTORE DUP9 SWAP3 POP DUP14 SWAP2 POP PUSH0 DUP1 MLOAD PUSH1 0x20 PUSH2 0x1DDA DUP4 CODECOPY DUP2 MLOAD SWAP2 MSTORE SWAP1 PUSH1 0x20 ADD PUSH1 0x40 MLOAD DUP1 SWAP2 SUB SWAP1 LOG2 SWAP12 SWAP11 POP POP POP POP POP POP POP POP POP POP POP JUMP JUMPDEST PUSH1 0x60 PUSH0 PUSH1 0x18 PUSH1 0x3C PUSH2 0x1039 DUP2 DUP7 PUSH2 0x1CF3 JUMP JUMPDEST PUSH2 0x1043 SWAP2 SWAP1 PUSH2 0x1CF3 JUMP JUMPDEST PUSH2 0x104D SWAP2 SWAP1 PUSH2 0x194B JUMP JUMPDEST SWAP1 POP PUSH0 PUSH1 0x3C PUSH2 0x105C DUP2 DUP7 PUSH2 0x1CF3 JUMP JUMPDEST PUSH2 0x1066 SWAP2 SWAP1 PUSH2 0x194B JUMP JUMPDEST SWAP1 POP PUSH0 PUSH2 0x1074 PUSH1 0x3C DUP7 PUSH2 0x194B JUMP JUMPDEST SWAP1 POP PUSH0 PUSH2 0x1080 DUP5 PUSH2 0x13EB JUMP JUMPDEST SWAP1 POP PUSH0 PUSH2 0x108C DUP5 PUSH2 0x13EB JUMP JUMPDEST SWAP1 POP PUSH0 PUSH2 0x1098 DUP5 PUSH2 0x13EB JUMP JUMPDEST SWAP1 POP DUP3 DUP3 DUP3 PUSH1 0x40 MLOAD PUSH1 0x20 ADD PUSH2 0x10AF SWAP4 SWAP3 SWAP2 SWAP1 PUSH2 0x1D06 JUMP JUMPDEST PUSH1 0x40 MLOAD PUSH1 0x20 DUP2 DUP4 SUB SUB DUP2 MSTORE SWAP1 PUSH1 0x40 MSTORE SWAP7 POP POP POP POP POP POP POP SWAP2 SWAP1 POP JUMP JUMPDEST PUSH0 DUP1 PUSH2 0x10D6 DUP5 PUSH2 0x1434 JUMP JUMPDEST SWAP1 POP PUSH0 PUSH2 0x10E2 DUP5 PUSH2 0x1434 JUMP JUMPDEST SWAP1 POP DUP1 DUP3 GT PUSH2 0x1104 JUMPI DUP2 DUP7 LT ISZERO DUP1 ISZERO PUSH2 0x10FB JUMPI POP DUP1 DUP7 GT ISZERO JUMPDEST SWAP3 POP POP POP PUSH2 0xCE5 JUMP JUMPDEST DUP2 DUP7 GT DUP1 ISZERO PUSH2 0x1116 JUMPI POP PUSH3 0x15180 DUP7 GT ISZERO JUMPDEST DUP1 PUSH2 0x10FB JUMPI POP DUP6 GT ISZERO SWAP2 POP PUSH2 0xCE5 SWAP1 POP JUMP JUMPDEST PUSH1 0x60 DUP2 PUSH0 SUB PUSH2 0x114E JUMPI POP POP PUSH1 0x40 DUP1 MLOAD DUP1 DUP3 ADD SWAP1 SWAP2 MSTORE PUSH1 0x1 DUP2 MSTORE PUSH1 0x3 PUSH1 0xFC SHL PUSH1 0x20 DUP3 ADD MSTORE SWAP1 JUMP JUMPDEST DUP2 PUSH0 JUMPDEST DUP2 ISZERO PUSH2 0x1177 JUMPI DUP1 PUSH2 0x1161 DUP2 PUSH2 0x1D3B JUMP JUMPDEST SWAP2 POP PUSH2 0x1170 SWAP1 POP PUSH1 0xA DUP4 PUSH2 0x1CF3 JUMP JUMPDEST SWAP2 POP PUSH2 0x1151 JUMP JUMPDEST PUSH0 DUP2 PUSH1 0x1 PUSH1 0x1 PUSH1 0x40 SHL SUB DUP2 GT ISZERO PUSH2 0x1190 JUMPI PUSH2 0x1190 PUSH2 0x165F JUMP JUMPDEST PUSH1 0x40 MLOAD SWAP1 DUP1 DUP3 MSTORE DUP1 PUSH1 0x1F ADD PUSH1 0x1F NOT AND PUSH1 0x20 ADD DUP3 ADD PUSH1 0x40 MSTORE DUP1 ISZERO PUSH2 0x11BA JUMPI PUSH1 0x20 DUP3 ADD DUP2 DUP1 CALLDATASIZE DUP4 CALLDATACOPY ADD SWAP1 POP JUMPDEST POP SWAP1 POP DUP2 JUMPDEST DUP6 ISZERO PUSH2 0x1244 JUMPI PUSH2 0x11D0 PUSH1 0x1 DUP3 PUSH2 0x1D53 JUMP JUMPDEST SWAP1 POP PUSH0 PUSH2 0x11DE PUSH1 0xA DUP9 PUSH2 0x1CF3 JUMP JUMPDEST PUSH2 0x11E9 SWAP1 PUSH1 0xA PUSH2 0x1D66 JUMP JUMPDEST PUSH2 0x11F3 SWAP1 DUP9 PUSH2 0x1D53 JUMP JUMPDEST PUSH2 0x11FE SWAP1 PUSH1 0x30 PUSH2 0x1D7D JUMP JUMPDEST SWAP1 POP PUSH0 DUP2 PUSH1 0xF8 SHL SWAP1 POP DUP1 DUP5 DUP5 DUP2 MLOAD DUP2 LT PUSH2 0x121A JUMPI PUSH2 0x121A PUSH2 0x1D96 JUMP JUMPDEST PUSH1 0x20 ADD ADD SWAP1 PUSH1 0x1 PUSH1 0x1 PUSH1 0xF8 SHL SUB NOT AND SWAP1 DUP2 PUSH0 BYTE SWAP1 MSTORE8 POP PUSH2 0x123B PUSH1 0xA DUP10 PUSH2 0x1CF3 JUMP JUMPDEST SWAP8 POP POP POP PUSH2 0x11BF JUMP JUMPDEST POP SWAP5 SWAP4 POP POP POP POP JUMP JUMPDEST PUSH1 0x60 DUP2 PUSH0 SUB PUSH2 0x1273 JUMPI POP POP PUSH1 0x40 DUP1 MLOAD DUP1 DUP3 ADD SWAP1 SWAP2 MSTORE PUSH1 0x1 DUP2 MSTORE PUSH1 0x3 PUSH1 0xFC SHL PUSH1 0x20 DUP3 ADD MSTORE SWAP1 JUMP JUMPDEST PUSH0 DUP1 DUP4 SLT SWAP1 DUP2 PUSH2 0x1283 JUMPI DUP4 PUSH2 0x128C JUMP JUMPDEST PUSH2 0x128C DUP5 PUSH2 0x1DAA JUMP JUMPDEST SWAP1 POP PUSH0 JUMPDEST DUP2 ISZERO PUSH2 0x12B6 JUMPI DUP1 PUSH2 0x12A0 DUP2 PUSH2 0x1D3B JUMP JUMPDEST SWAP2 POP PUSH2 0x12AF SWAP1 POP PUSH1 0xA DUP4 PUSH2 0x1CF3 JUMP JUMPDEST SWAP2 POP PUSH2 0x1290 JUMP JUMPDEST DUP3 ISZERO PUSH2 0x12CA JUMPI DUP1 PUSH2 0x12C6 DUP2 PUSH2 0x1D3B JUMP JUMPDEST SWAP2 POP POP JUMPDEST PUSH0 DUP2 PUSH1 0x1 PUSH1 0x1 PUSH1 0x40 SHL SUB DUP2 GT ISZERO PUSH2 0x12E3 JUMPI PUSH2 0x12E3 PUSH2 0x165F JUMP JUMPDEST PUSH1 0x40 MLOAD SWAP1 DUP1 DUP3 MSTORE DUP1 PUSH1 0x1F ADD PUSH1 0x1F NOT AND PUSH1 0x20 ADD DUP3 ADD PUSH1 0x40 MSTORE DUP1 ISZERO PUSH2 0x130D JUMPI PUSH1 0x20 DUP3 ADD DUP2 DUP1 CALLDATASIZE DUP4 CALLDATACOPY ADD SWAP1 POP JUMPDEST POP SWAP1 POP DUP2 DUP5 PUSH2 0x131C JUMPI DUP7 PUSH2 0x1325 JUMP JUMPDEST PUSH2 0x1325 DUP8 PUSH2 0x1DAA JUMP JUMPDEST SWAP4 POP JUMPDEST DUP4 ISZERO PUSH2 0x13AD JUMPI PUSH2 0x1339 PUSH1 0x1 DUP3 PUSH2 0x1D53 JUMP JUMPDEST SWAP1 POP PUSH0 PUSH2 0x1347 PUSH1 0xA DUP7 PUSH2 0x1CF3 JUMP JUMPDEST PUSH2 0x1352 SWAP1 PUSH1 0xA PUSH2 0x1D66 JUMP JUMPDEST PUSH2 0x135C SWAP1 DUP7 PUSH2 0x1D53 JUMP JUMPDEST PUSH2 0x1367 SWAP1 PUSH1 0x30 PUSH2 0x1D7D JUMP JUMPDEST SWAP1 POP PUSH0 DUP2 PUSH1 0xF8 SHL SWAP1 POP DUP1 DUP5 DUP5 DUP2 MLOAD DUP2 LT PUSH2 0x1383 JUMPI PUSH2 0x1383 PUSH2 0x1D96 JUMP JUMPDEST PUSH1 0x20 ADD ADD SWAP1 PUSH1 0x1 PUSH1 0x1 PUSH1 0xF8 SHL SUB NOT AND SWAP1 DUP2 PUSH0 BYTE SWAP1 MSTORE8 POP PUSH2 0x13A4 PUSH1 0xA DUP8 PUSH2 0x1CF3 JUMP JUMPDEST SWAP6 POP POP POP PUSH2 0x1328 JUMP JUMPDEST DUP5 ISZERO PUSH2 0x13E1 JUMPI PUSH1 0x2D PUSH1 0xF8 SHL DUP3 PUSH0 DUP2 MLOAD DUP2 LT PUSH2 0x13CA JUMPI PUSH2 0x13CA PUSH2 0x1D96 JUMP JUMPDEST PUSH1 0x20 ADD ADD SWAP1 PUSH1 0x1 PUSH1 0x1 PUSH1 0xF8 SHL SUB NOT AND SWAP1 DUP2 PUSH0 BYTE SWAP1 MSTORE8 POP JUMPDEST POP SWAP6 SWAP5 POP POP POP POP POP JUMP JUMPDEST PUSH1 0x60 PUSH1 0xA DUP3 LT ISZERO PUSH2 0x1425 JUMPI PUSH2 0x13FF DUP3 PUSH2 0x1128 JUMP JUMPDEST PUSH1 0x40 MLOAD PUSH1 0x20 ADD PUSH2 0x140F SWAP2 SWAP1 PUSH2 0x1DC4 JUMP JUMPDEST PUSH1 0x40 MLOAD PUSH1 0x20 DUP2 DUP4 SUB SUB DUP2 MSTORE SWAP1 PUSH1 0x40 MSTORE SWAP1 POP SWAP2 SWAP1 POP JUMP JUMPDEST PUSH2 0x142E DUP3 PUSH2 0x1128 JUMP JUMPDEST SWAP3 SWAP2 POP POP JUMP JUMPDEST DUP1 MLOAD PUSH0 SWAP1 DUP3 SWAP1 PUSH1 0x8 EQ PUSH2 0x1484 JUMPI PUSH1 0x40 MLOAD PUSH3 0x461BCD PUSH1 0xE5 SHL DUP2 MSTORE PUSH1 0x20 PUSH1 0x4 DUP3 ADD MSTORE PUSH1 0x13 PUSH1 0x24 DUP3 ADD MSTORE PUSH19 0x1A5B9D985B1A59081D1A5B5948199BDC9B585D PUSH1 0x6A SHL PUSH1 0x44 DUP3 ADD MSTORE PUSH1 0x64 ADD JUMPDEST PUSH1 0x40 MLOAD DUP1 SWAP2 SUB SWAP1 REVERT JUMPDEST PUSH0 PUSH1 0x30 DUP3 PUSH1 0x1 DUP2 MLOAD DUP2 LT PUSH2 0x149A JUMPI PUSH2 0x149A PUSH2 0x1D96 JUMP JUMPDEST ADD PUSH1 0x20 ADD MLOAD PUSH2 0x14AC SWAP2 SWAP1 PUSH1 0xF8 SHR PUSH2 0x1D53 JUMP JUMPDEST PUSH1 0x30 DUP4 PUSH0 DUP2 MLOAD DUP2 LT PUSH2 0x14C0 JUMPI PUSH2 0x14C0 PUSH2 0x1D96 JUMP JUMPDEST ADD PUSH1 0x20 ADD MLOAD PUSH2 0x14D2 SWAP2 SWAP1 PUSH1 0xF8 SHR PUSH2 0x1D53 JUMP JUMPDEST PUSH2 0x14DD SWAP1 PUSH1 0xA PUSH2 0x1D66 JUMP JUMPDEST PUSH2 0x14E7 SWAP2 SWAP1 PUSH2 0x1924 JUMP JUMPDEST SWAP1 POP PUSH0 PUSH1 0x30 DUP4 PUSH1 0x4 DUP2 MLOAD DUP2 LT PUSH2 0x14FF JUMPI PUSH2 0x14FF PUSH2 0x1D96 JUMP JUMPDEST ADD PUSH1 0x20 ADD MLOAD PUSH2 0x1511 SWAP2 SWAP1 PUSH1 0xF8 SHR PUSH2 0x1D53 JUMP JUMPDEST PUSH1 0x30 DUP5 PUSH1 0x3 DUP2 MLOAD DUP2 LT PUSH2 0x1526 JUMPI PUSH2 0x1526 PUSH2 0x1D96 JUMP JUMPDEST ADD PUSH1 0x20 ADD MLOAD PUSH2 0x1538 SWAP2 SWAP1 PUSH1 0xF8 SHR PUSH2 0x1D53 JUMP JUMPDEST PUSH2 0x1543 SWAP1 PUSH1 0xA PUSH2 0x1D66 JUMP JUMPDEST PUSH2 0x154D SWAP2 SWAP1 PUSH2 0x1924 JUMP JUMPDEST SWAP1 POP PUSH0 PUSH1 0x30 DUP5 PUSH1 0x7 DUP2 MLOAD DUP2 LT PUSH2 0x1565 JUMPI PUSH2 0x1565 PUSH2 0x1D96 JUMP JUMPDEST ADD PUSH1 0x20 ADD MLOAD PUSH2 0x1577 SWAP2 SWAP1 PUSH1 0xF8 SHR PUSH2 0x1D53 JUMP JUMPDEST PUSH1 0x30 DUP6 PUSH1 0x6 DUP2 MLOAD DUP2 LT PUSH2 0x158C JUMPI PUSH2 0x158C PUSH2 0x1D96 JUMP JUMPDEST ADD PUSH1 0x20 ADD MLOAD PUSH2 0x159E SWAP2 SWAP1 PUSH1 0xF8 SHR PUSH2 0x1D53 JUMP JUMPDEST PUSH2 0x15A9 SWAP1 PUSH1 0xA PUSH2 0x1D66 JUMP JUMPDEST PUSH2 0x15B3 SWAP2 SWAP1 PUSH2 0x1924 JUMP JUMPDEST SWAP1 POP PUSH1 0x18 DUP4 LT DUP1 ISZERO PUSH2 0x15C5 JUMPI POP PUSH1 0x3C DUP3 LT JUMPDEST DUP1 ISZERO PUSH2 0x15D1 JUMPI POP PUSH1 0x3C DUP2 LT JUMPDEST PUSH2 0x1612 JUMPI PUSH1 0x40 MLOAD PUSH3 0x461BCD PUSH1 0xE5 SHL DUP2 MSTORE PUSH1 0x20 PUSH1 0x4 DUP3 ADD MSTORE PUSH1 0x12 PUSH1 0x24 DUP3 ADD MSTORE PUSH18 0x496E76616C69642074696D652076616C7565 PUSH1 0x70 SHL PUSH1 0x44 DUP3 ADD MSTORE PUSH1 0x64 ADD PUSH2 0x147B JUMP JUMPDEST DUP1 PUSH2 0x161E DUP4 PUSH1 0x3C PUSH2 0x1D66 JUMP JUMPDEST PUSH2 0x162A DUP6 PUSH2 0xE10 PUSH2 0x1D66 JUMP JUMPDEST PUSH2 0x1634 SWAP2 SWAP1 PUSH2 0x1924 JUMP JUMPDEST PUSH2 0x163E SWAP2 SWAP1 PUSH2 0x1924 JUMP JUMPDEST SWAP7 SWAP6 POP POP POP POP POP POP JUMP JUMPDEST PUSH0 PUSH1 0x20 DUP3 DUP5 SUB SLT ISZERO PUSH2 0x1658 JUMPI PUSH0 DUP1 REVERT JUMPDEST POP CALLDATALOAD SWAP2 SWAP1 POP JUMP JUMPDEST PUSH4 0x4E487B71 PUSH1 0xE0 SHL PUSH0 MSTORE PUSH1 0x41 PUSH1 0x4 MSTORE PUSH1 0x24 PUSH0 REVERT JUMPDEST PUSH1 0x40 MLOAD PUSH1 0x80 DUP2 ADD PUSH1 0x1 PUSH1 0x1 PUSH1 0x40 SHL SUB DUP2 GT DUP3 DUP3 LT OR ISZERO PUSH2 0x1695 JUMPI PUSH2 0x1695 PUSH2 0x165F JUMP JUMPDEST PUSH1 0x40 MSTORE SWAP1 JUMP JUMPDEST PUSH1 0x40 MLOAD PUSH1 0xA0 DUP2 ADD PUSH1 0x1 PUSH1 0x1 PUSH1 0x40 SHL SUB DUP2 GT DUP3 DUP3 LT OR ISZERO PUSH2 0x1695 JUMPI PUSH2 0x1695 PUSH2 0x165F JUMP JUMPDEST PUSH1 0x40 MLOAD PUSH1 0x1F DUP3 ADD PUSH1 0x1F NOT AND DUP2 ADD PUSH1 0x1 PUSH1 0x1 PUSH1 0x40 SHL SUB DUP2 GT DUP3 DUP3 LT OR ISZERO PUSH2 0x16E5 JUMPI PUSH2 0x16E5 PUSH2 0x165F JUMP JUMPDEST PUSH1 0x40 MSTORE SWAP2 SWAP1 POP JUMP JUMPDEST PUSH0 PUSH1 0x1 PUSH1 0x1 PUSH1 0x40 SHL SUB DUP3 GT ISZERO PUSH2 0x1705 JUMPI PUSH2 0x1705 PUSH2 0x165F JUMP JUMPDEST POP PUSH1 0x1F ADD PUSH1 0x1F NOT AND PUSH1 0x20 ADD SWAP1 JUMP JUMPDEST PUSH0 DUP3 PUSH1 0x1F DUP4 ADD SLT PUSH2 0x1722 JUMPI PUSH0 DUP1 REVERT JUMPDEST DUP2 CALLDATALOAD PUSH2 0x1735 PUSH2 0x1730 DUP3 PUSH2 0x16ED JUMP JUMPDEST PUSH2 0x16BD JUMP JUMPDEST DUP2 DUP2 MSTORE DUP5 PUSH1 0x20 DUP4 DUP7 ADD ADD GT ISZERO PUSH2 0x1749 JUMPI PUSH0 DUP1 REVERT JUMPDEST DUP2 PUSH1 0x20 DUP6 ADD PUSH1 0x20 DUP4 ADD CALLDATACOPY PUSH0 SWAP2 DUP2 ADD PUSH1 0x20 ADD SWAP2 SWAP1 SWAP2 MSTORE SWAP4 SWAP3 POP POP POP JUMP JUMPDEST PUSH0 DUP1 PUSH0 DUP1 PUSH0 PUSH1 0xA0 DUP7 DUP9 SUB SLT ISZERO PUSH2 0x1779 JUMPI PUSH0 DUP1 REVERT JUMPDEST DUP6 CALLDATALOAD SWAP5 POP PUSH1 0x20 DUP7 ADD CALLDATALOAD PUSH1 0x1 PUSH1 0x1 PUSH1 0x40 SHL SUB DUP2 GT ISZERO PUSH2 0x1795 JUMPI PUSH0 DUP1 REVERT JUMPDEST PUSH2 0x17A1 DUP9 DUP3 DUP10 ADD PUSH2 0x1713 JUMP JUMPDEST SWAP5 POP POP PUSH1 0x40 DUP7 ADD CALLDATALOAD SWAP3 POP PUSH1 0x60 DUP7 ADD CALLDATALOAD PUSH1 0x1 PUSH1 0x1 PUSH1 0x40 SHL SUB DUP2 GT ISZERO PUSH2 0x17C3 JUMPI PUSH0 DUP1 REVERT JUMPDEST PUSH2 0x17CF DUP9 DUP3 DUP10 ADD PUSH2 0x1713 JUMP JUMPDEST SWAP3 POP POP PUSH1 0x80 DUP7 ADD CALLDATALOAD PUSH1 0x1 PUSH1 0x1 PUSH1 0x40 SHL SUB DUP2 GT ISZERO PUSH2 0x17EA JUMPI PUSH0 DUP1 REVERT JUMPDEST PUSH2 0x17F6 DUP9 DUP3 DUP10 ADD PUSH2 0x1713 JUMP JUMPDEST SWAP2 POP POP SWAP3 SWAP6 POP SWAP3 SWAP6 SWAP1 SWAP4 POP JUMP JUMPDEST PUSH0 DUP1 PUSH0 PUSH1 0x60 DUP5 DUP7 SUB SLT ISZERO PUSH2 0x1815 JUMPI PUSH0 DUP1 REVERT JUMPDEST DUP4 CALLDATALOAD SWAP3 POP PUSH1 0x20 DUP5 ADD CALLDATALOAD PUSH1 0x1 PUSH1 0x1 PUSH1 0x40 SHL SUB DUP2 GT ISZERO PUSH2 0x1831 JUMPI PUSH0 DUP1 REVERT JUMPDEST PUSH2 0x183D DUP7 DUP3 DUP8 ADD PUSH2 0x1713 JUMP JUMPDEST SWAP4 SWAP7 SWAP4 SWAP6 POP POP POP POP PUSH1 0x40 SWAP2 SWAP1 SWAP2 ADD CALLDATALOAD SWAP1 JUMP JUMPDEST DUP1 ISZERO ISZERO DUP2 EQ PUSH2 0x185C JUMPI PUSH0 DUP1 REVERT JUMPDEST POP JUMP JUMPDEST PUSH0 DUP1 PUSH0 DUP1 PUSH0 DUP1 PUSH1 0xC0 DUP8 DUP10 SUB SLT ISZERO PUSH2 0x1874 JUMPI PUSH0 DUP1 REVERT JUMPDEST DUP7 CALLDATALOAD SWAP6 POP PUSH1 0x20 DUP8 ADD CALLDATALOAD PUSH1 0x1 PUSH1 0x1 PUSH1 0x40 SHL SUB DUP2 GT ISZERO PUSH2 0x1890 JUMPI PUSH0 DUP1 REVERT JUMPDEST PUSH2 0x189C DUP10 DUP3 DUP11 ADD PUSH2 0x1713 JUMP JUMPDEST SWAP6 POP POP PUSH1 0x40 DUP8 ADD CALLDATALOAD SWAP4 POP PUSH1 0x60 DUP8 ADD CALLDATALOAD PUSH1 0x1 PUSH1 0x1 PUSH1 0x40 SHL SUB DUP2 GT ISZERO PUSH2 0x18BE JUMPI PUSH0 DUP1 REVERT JUMPDEST PUSH2 0x18CA DUP10 DUP3 DUP11 ADD PUSH2 0x1713 JUMP JUMPDEST SWAP4 POP POP PUSH1 0x80 DUP8 ADD CALLDATALOAD PUSH1 0x1 PUSH1 0x1 PUSH1 0x40 SHL SUB DUP2 GT ISZERO PUSH2 0x18E5 JUMPI PUSH0 DUP1 REVERT JUMPDEST PUSH2 0x18F1 DUP10 DUP3 DUP11 ADD PUSH2 0x1713 JUMP JUMPDEST SWAP3 POP POP PUSH1 0xA0 DUP8 ADD CALLDATALOAD PUSH2 0x1902 DUP2 PUSH2 0x184F JUMP JUMPDEST DUP1 SWAP2 POP POP SWAP3 SWAP6 POP SWAP3 SWAP6 POP SWAP3 SWAP6 JUMP JUMPDEST PUSH4 0x4E487B71 PUSH1 0xE0 SHL PUSH0 MSTORE PUSH1 0x11 PUSH1 0x4 MSTORE PUSH1 0x24 PUSH0 REVERT JUMPDEST DUP1 DUP3 ADD DUP1 DUP3 GT ISZERO PUSH2 0x142E JUMPI PUSH2 0x142E PUSH2 0x1910 JUMP JUMPDEST PUSH4 0x4E487B71 PUSH1 0xE0 SHL PUSH0 MSTORE PUSH1 0x12 PUSH1 0x4 MSTORE PUSH1 0x24 PUSH0 REVERT JUMPDEST PUSH0 DUP3 PUSH2 0x1959 JUMPI PUSH2 0x1959 PUSH2 0x1937 JUMP JUMPDEST POP MOD SWAP1 JUMP JUMPDEST PUSH0 DUP3 PUSH1 0x1F DUP4 ADD SLT PUSH2 0x196D JUMPI PUSH0 DUP1 REVERT JUMPDEST DUP2 MLOAD PUSH2 0x197B PUSH2 0x1730 DUP3 PUSH2 0x16ED JUMP JUMPDEST DUP2 DUP2 MSTORE DUP5 PUSH1 0x20 DUP4 DUP7 ADD ADD GT ISZERO PUSH2 0x198F JUMPI PUSH0 DUP1 REVERT JUMPDEST DUP2 PUSH1 0x20 DUP6 ADD PUSH1 0x20 DUP4 ADD MCOPY PUSH0 SWAP2 DUP2 ADD PUSH1 0x20 ADD SWAP2 SWAP1 SWAP2 MSTORE SWAP4 SWAP3 POP POP POP JUMP JUMPDEST PUSH0 PUSH1 0x20 DUP3 DUP5 SUB SLT ISZERO PUSH2 0x19BB JUMPI PUSH0 DUP1 REVERT JUMPDEST DUP2 MLOAD PUSH1 0x1 PUSH1 0x1 PUSH1 0x40 SHL SUB DUP2 GT ISZERO PUSH2 0x19D0 JUMPI PUSH0 DUP1 REVERT JUMPDEST DUP3 ADD PUSH1 0x80 DUP2 DUP6 SUB SLT ISZERO PUSH2 0x19E1 JUMPI PUSH0 DUP1 REVERT JUMPDEST PUSH2 0x19E9 PUSH2 0x1673 JUMP JUMPDEST DUP2 MLOAD DUP2 MSTORE PUSH1 0x20 DUP3 ADD MLOAD PUSH1 0x1 PUSH1 0x1 PUSH1 0x40 SHL SUB DUP2 GT ISZERO PUSH2 0x1A05 JUMPI PUSH0 DUP1 REVERT JUMPDEST PUSH2 0x1A11 DUP7 DUP3 DUP6 ADD PUSH2 0x195E JUMP JUMPDEST PUSH1 0x20 DUP4 ADD MSTORE POP PUSH1 0x40 DUP3 DUP2 ADD MLOAD SWAP1 DUP3 ADD MSTORE PUSH1 0x60 SWAP1 SWAP2 ADD MLOAD SWAP1 PUSH2 0x1A31 DUP3 PUSH2 0x184F JUMP JUMPDEST PUSH1 0x60 DUP2 ADD SWAP2 SWAP1 SWAP2 MSTORE SWAP4 SWAP3 POP POP POP JUMP JUMPDEST PUSH0 PUSH1 0x20 DUP3 DUP5 SUB SLT ISZERO PUSH2 0x1A50 JUMPI PUSH0 DUP1 REVERT JUMPDEST DUP2 MLOAD PUSH1 0x1 PUSH1 0x1 PUSH1 0x40 SHL SUB DUP2 GT ISZERO PUSH2 0x1A65 JUMPI PUSH0 DUP1 REVERT JUMPDEST DUP3 ADD PUSH1 0xA0 DUP2 DUP6 SUB SLT ISZERO PUSH2 0x1A76 JUMPI PUSH0 DUP1 REVERT JUMPDEST PUSH2 0x1A7E PUSH2 0x169B JUMP JUMPDEST DUP2 MLOAD DUP2 MSTORE PUSH1 0x20 DUP1 DUP4 ADD MLOAD SWAP1 DUP3 ADD MSTORE PUSH1 0x40 DUP3 ADD MLOAD PUSH1 0x1 PUSH1 0x1 PUSH1 0x40 SHL SUB DUP2 GT ISZERO PUSH2 0x1AA4 JUMPI PUSH0 DUP1 REVERT JUMPDEST PUSH2 0x1AB0 DUP7 DUP3 DUP6 ADD PUSH2 0x195E JUMP JUMPDEST PUSH1 0x40 DUP4 ADD MSTORE POP PUSH1 0x60 DUP3 ADD MLOAD PUSH1 0x1 PUSH1 0x1 PUSH1 0x40 SHL SUB DUP2 GT ISZERO PUSH2 0x1ACE JUMPI PUSH0 DUP1 REVERT JUMPDEST PUSH2 0x1ADA DUP7 DUP3 DUP6 ADD PUSH2 0x195E JUMP JUMPDEST PUSH1 0x60 DUP4 ADD MSTORE POP PUSH1 0x80 DUP3 ADD MLOAD SWAP2 POP PUSH2 0x1AF0 DUP3 PUSH2 0x184F JUMP JUMPDEST PUSH1 0x80 DUP2 ADD SWAP2 SWAP1 SWAP2 MSTORE SWAP4 SWAP3 POP POP POP JUMP JUMPDEST PUSH0 DUP2 MLOAD DUP1 PUSH1 0x20 DUP5 ADD DUP6 MCOPY PUSH0 SWAP4 ADD SWAP3 DUP4 MSTORE POP SWAP1 SWAP2 SWAP1 POP JUMP JUMPDEST PUSH17 0x2632BB32B61D10199610223937B7329D1 PUSH1 0x7D SHL DUP2 MSTORE PUSH0 PUSH2 0x1B3B PUSH1 0x11 DUP4 ADD DUP6 PUSH2 0x1AFF JUMP JUMPDEST PUSH8 0x16102A34B6B29D1 PUSH1 0xC5 SHL DUP2 MSTORE PUSH2 0x1B56 PUSH1 0x8 DUP3 ADD DUP6 PUSH2 0x1AFF JUMP JUMPDEST SWAP6 SWAP5 POP POP POP POP POP JUMP JUMPDEST PUSH0 DUP2 MLOAD DUP1 DUP5 MSTORE DUP1 PUSH1 0x20 DUP5 ADD PUSH1 0x20 DUP7 ADD MCOPY PUSH0 PUSH1 0x20 DUP3 DUP7 ADD ADD MSTORE PUSH1 0x20 PUSH1 0x1F NOT PUSH1 0x1F DUP4 ADD AND DUP6 ADD ADD SWAP2 POP POP SWAP3 SWAP2 POP POP JUMP JUMPDEST PUSH1 0x40 DUP2 MSTORE PUSH0 PUSH2 0x1B9F PUSH1 0x40 DUP4 ADD DUP6 PUSH2 0x1B5F JUMP JUMPDEST DUP3 DUP2 SUB PUSH1 0x20 DUP5 ADD MSTORE PUSH2 0x1B56 DUP2 DUP6 PUSH2 0x1B5F JUMP JUMPDEST PUSH10 0x223937B7329024B21D1 PUSH1 0xB5 SHL DUP2 MSTORE PUSH0 PUSH2 0x1BCF PUSH1 0xA DUP4 ADD DUP7 PUSH2 0x1AFF JUMP JUMPDEST PUSH13 0x161026B7B232B62A3CB8329D1 PUSH1 0x9D SHL DUP2 MSTORE PUSH2 0x1BEF PUSH1 0xD DUP3 ADD DUP7 PUSH2 0x1AFF JUMP JUMPDEST SWAP1 POP PUSH8 0x16102D37B7329D1 PUSH1 0xC5 SHL DUP2 MSTORE PUSH2 0x163E PUSH1 0x8 DUP3 ADD DUP6 PUSH2 0x1AFF JUMP JUMPDEST PUSH6 0x2D37B7329D1 PUSH1 0xD5 SHL DUP2 MSTORE PUSH0 PUSH2 0x1C26 PUSH1 0x6 DUP4 ADD DUP7 PUSH2 0x1AFF JUMP JUMPDEST PUSH13 0x161029BA30B93A2A34B6B29D1 PUSH1 0x9D SHL DUP2 MSTORE PUSH2 0x1C46 PUSH1 0xD DUP3 ADD DUP7 PUSH2 0x1AFF JUMP JUMPDEST SWAP1 POP PUSH11 0x161022B7322A34B6B29D1 PUSH1 0xAD SHL DUP2 MSTORE PUSH2 0x163E PUSH1 0xB DUP3 ADD DUP6 PUSH2 0x1AFF JUMP JUMPDEST PUSH10 0x2232B1B4B9B4B7B71D1 PUSH1 0xB5 SHL DUP2 MSTORE PUSH0 PUSH2 0xCE5 PUSH1 0xA DUP4 ADD DUP5 PUSH2 0x1AFF JUMP JUMPDEST PUSH17 0x2632BB32B61D10189610223937B7329D1 PUSH1 0x7D SHL DUP2 MSTORE PUSH0 PUSH2 0x1B3B PUSH1 0x11 DUP4 ADD DUP6 PUSH2 0x1AFF JUMP JUMPDEST PUSH17 0x2632BB32B61D10191610223937B7329D1 PUSH1 0x7D SHL DUP2 MSTORE PUSH0 PUSH2 0x1B3B PUSH1 0x11 DUP4 ADD DUP6 PUSH2 0x1AFF JUMP JUMPDEST PUSH17 0x2632BB32B61D10181610223937B7329D1 PUSH1 0x7D SHL DUP2 MSTORE PUSH0 PUSH2 0x1B3B PUSH1 0x11 DUP4 ADD DUP6 PUSH2 0x1AFF JUMP JUMPDEST PUSH0 DUP3 PUSH2 0x1D01 JUMPI PUSH2 0x1D01 PUSH2 0x1937 JUMP JUMPDEST POP DIV SWAP1 JUMP JUMPDEST PUSH0 PUSH2 0x1D11 DUP3 DUP7 PUSH2 0x1AFF JUMP JUMPDEST PUSH1 0x1D PUSH1 0xF9 SHL DUP2 MSTORE PUSH2 0x1D25 PUSH1 0x1 DUP3 ADD DUP7 PUSH2 0x1AFF JUMP JUMPDEST SWAP1 POP PUSH1 0x1D PUSH1 0xF9 SHL DUP2 MSTORE PUSH2 0x163E PUSH1 0x1 DUP3 ADD DUP6 PUSH2 0x1AFF JUMP JUMPDEST PUSH0 PUSH1 0x1 DUP3 ADD PUSH2 0x1D4C JUMPI PUSH2 0x1D4C PUSH2 0x1910 JUMP JUMPDEST POP PUSH1 0x1 ADD SWAP1 JUMP JUMPDEST DUP2 DUP2 SUB DUP2 DUP2 GT ISZERO PUSH2 0x142E JUMPI PUSH2 0x142E PUSH2 0x1910 JUMP JUMPDEST DUP1 DUP3 MUL DUP2 ISZERO DUP3 DUP3 DIV DUP5 EQ OR PUSH2 0x142E JUMPI PUSH2 0x142E PUSH2 0x1910 JUMP JUMPDEST PUSH1 0xFF DUP2 DUP2 AND DUP4 DUP3 AND ADD SWAP1 DUP2 GT ISZERO PUSH2 0x142E JUMPI PUSH2 0x142E PUSH2 0x1910 JUMP JUMPDEST PUSH4 0x4E487B71 PUSH1 0xE0 SHL PUSH0 MSTORE PUSH1 0x32 PUSH1 0x4 MSTORE PUSH1 0x24 PUSH0 REVERT JUMPDEST PUSH0 PUSH1 0x1 PUSH1 0xFF SHL DUP3 ADD PUSH2 0x1DBE JUMPI PUSH2 0x1DBE PUSH2 0x1910 JUMP JUMPDEST POP PUSH0 SUB SWAP1 JUMP JUMPDEST PUSH1 0x3 PUSH1 0xFC SHL DUP2 MSTORE PUSH0 PUSH2 0xCE5 PUSH1 0x1 DUP4 ADD DUP5 PUSH2 0x1AFF JUMP INVALID 0xB7 SWAP7 SWAP7 0xD0 SDIV 0xAA 0xD5 CALLDATACOPY 0xE3 CALLDATALOAD 0xB7 BASEFEE BLOBBASEFEE 0x22 LOG2 0xA9 MCOPY PUSH3 0x10165A DIV PUSH18 0x175C06351D2E79AE9DA26469706673582212 KECCAK256 SELFDESTRUCT 0xAC PUSH3 0x2C905A 0xBE 0xAF 0x2E DUP6 0xAD 0xE7 0xCA PUSH0 0x2E 0xA7 SWAP2 PUSH17 0x660E8CD86FD674A7F4A712D49D664736F PUSH13 0x634300081A0033000000000000 "},"methodIdentifiers":{"drone()":"8edf104b","level0EvaluateAccess(uint256,string,int256,string,string,bool)":"ca8a4658","level1EvaluateAccess(uint256,string,int256,string,string)":"b0ddbe0d","level2EvaluateAccess(uint256,string,int256)":"b46e12f3","level3EvaluateAccess(uint256)":"17234696","logger()":"f24ccbfe","policy()":"0505c8c9"}}}}}