{
  "_format": "hh3-artifact-1",
  "contractName": "PDP",
  "sourceName": "contracts/PDP.sol",
  "abi": [
    {
      "inputs": [
        {
          "internalType": "address",
          "name": "_policyAddress",
          "type": "address"
        },
        {
          "internalType": "address",
          "name": "_droneAddress",
          "type": "address"
        },
        {
          "internalType": "address",
          "name": "_loggerAddress",
          "type": "address"
        }
      ],
      "stateMutability": "nonpayable",
      "type": "constructor"
    },
    {
      "anonymous": false,
      "inputs": [
        {
          "indexed": true,
          "internalType": "uint256",
          "name": "entityId",
          "type": "uint256"
        },
        {
          "indexed": false,
          "internalType": "bool",
          "name": "accessGranted",
          "type": "bool"
        }
      ],
      "name": "AccessEvaluated",
      "type": "event"
    },
    {
      "inputs": [],
      "name": "drone",
      "outputs": [
        {
          "internalType": "contract DroneContract",
          "name": "",
          "type": "address"
        }
      ],
      "stateMutability": "view",
      "type": "function"
    },
    {
      "inputs": [
        {
          "internalType": "uint256",
          "name": "_id",
          "type": "uint256"
        },
        {
          "internalType": "string",
          "name": "_model_type",
          "type": "string"
        },
        {
          "internalType": "int256",
          "name": "_zone",
          "type": "int256"
        },
        {
          "internalType": "string",
          "name": "_startTime",
          "type": "string"
        },
        {
          "internalType": "string",
          "name": "_endTime",
          "type": "string"
        },
        {
          "internalType": "bool",
          "name": "_accessGranted",
          "type": "bool"
        }
      ],
      "name": "level0EvaluateAccess",
      "outputs": [
        {
          "internalType": "bool",
          "name": "",
          "type": "bool"
        }
      ],
      "stateMutability": "nonpayable",
      "type": "function"
    },
    {
      "inputs": [
        {
          "internalType": "uint256",
          "name": "_id",
          "type": "uint256"
        },
        {
          "internalType": "string",
          "name": "_model_type",
          "type": "string"
        },
        {
          "internalType": "int256",
          "name": "_zone",
          "type": "int256"
        },
        {
          "internalType": "string",
          "name": "_startTime",
          "type": "string"
        },
        {
          "internalType": "string",
          "name": "_endTime",
          "type": "string"
        }
      ],
      "name": "level1EvaluateAccess",
      "outputs": [
        {
          "internalType": "bool",
          "name": "",
          "type": "bool"
        }
      ],
      "stateMutability": "nonpayable",
      "type": "function"
    },
    {
      "inputs": [
        {
          "internalType": "uint256",
          "name": "_id",
          "type": "uint256"
        },
        {
          "internalType": "string",
          "name": "_model_type",
          "type": "string"
        },
        {
          "internalType": "int256",
          "name": "_zone",
          "type": "int256"
        }
      ],
      "name": "level2EvaluateAccess",
      "outputs": [
        {
          "internalType": "bool",
          "name": "",
          "type": "bool"
        }
      ],
      "stateMutability": "nonpayable",
      "type": "function"
    },
    {
      "inputs": [
        {
          "internalType": "uint256",
          "name": "_entityId",
          "type": "uint256"
        }
      ],
      "name": "level3EvaluateAccess",
      "outputs": [
        {
          "internalType": "bool",
          "name": "",
          "type": "bool"
        }
      ],
      "stateMutability": "nonpayable",
      "type": "function"
    },
    {
      "inputs": [],
      "name": "logger",
      "outputs": [
        {
          "internalType": "contract LoggingContract",
          "name": "",
          "type": "address"
        }
      ],
      "stateMutability": "view",
      "type": "function"
    },
    {
      "inputs": [],
      "name": "policy",
      "outputs": [
        {
          "internalType": "contract PolicyContract",
          "name": "",
          "type": "address"
        }
      ],
      "stateMutability": "view",
      "type": "function"
    }
  ],
  "bytecode": "0x6080604052348015600e575f80fd5b50604051611efa380380611efa833981016040819052602b916085565b600180546001600160a01b039485166001600160a01b03199182161790915560028054938516938216939093179092555f805491909316911617905560be565b80516001600160a01b03811681146080575f80fd5b919050565b5f805f606084860312156096575f80fd5b609d84606b565b925060a960208501606b565b915060b560408501606b565b90509250925092565b611e2f806100cb5f395ff3fe608060405234801561000f575f80fd5b506004361061007a575f3560e01c8063b0ddbe0d11610058578063b0ddbe0d146100e4578063b46e12f3146100f7578063ca8a46581461010a578063f24ccbfe1461011d575f80fd5b80630505c8c91461007e57806317234696146100ae5780638edf104b146100d1575b5f80fd5b600154610091906001600160a01b031681565b6040516001600160a01b0390911681526020015b60405180910390f35b6100c16100bc366004611648565b61012f565b60405190151581526020016100a5565b600254610091906001600160a01b031681565b6100c16100f2366004611765565b61059c565b6100c1610105366004611803565b610901565b6100c161011836600461185f565b610cec565b5f54610091906001600160a01b031681565b5f8061013d612a3042611924565b90505f61014d620151808361194b565b60025460405163dbd1be7760e01b8152600481018790529192505f9182916001600160a01b03169063dbd1be77906024015f60405180830381865afa158015610198573d5f803e3d5ffd5b505050506040513d5f823e601f3d908101601f191682016040526101bf91908101906119ab565b6001546040808301519051632751ed2760e21b81529293505f926001600160a01b0390921691639d47b49c916101fb9160040190815260200190565b5f60405180830381865afa158015610215573d5f803e3d5ffd5b505050506040513d5f823e601f3d908101601f1916820160405261023c9190810190611a40565b90505f61024886611028565b905061025d85836040015184606001516110cb565b1561026757600193505b60408051808201909152600e81526d1058d8d95cdcc814995c5d595cdd60921b60208201525f6102968a611128565b836040516020016102a8929190611b16565b60408051601f19818403018152908290525f546312ff157b60e31b83529092506001600160a01b0316906397f8abd8906102e89085908590600401611b8d565b5f604051808303815f87803b1580156102ff575f80fd5b505af1158015610311573d5f803e3d5ffd5b505050506040518060400160405280600381526020016205049560ec1b815250915061033c8a611128565b856020015161034e876040015161124d565b60405160200161036093929190611bb1565b60408051601f19818403018152908290525f546312ff157b60e31b83529092506001600160a01b0316906397f8abd8906103a09085908590600401611b8d565b5f604051808303815f87803b1580156103b7575f80fd5b505af11580156103c9573d5f803e3d5ffd5b505050506040518060400160405280600381526020016205052560ec1b81525091506103f8846020015161124d565b8460400151856060015160405160200161041493929190611c0c565b60408051601f19818403018152908290525f546312ff157b60e31b83529092506001600160a01b0316906397f8abd8906104549085908590600401611b8d565b5f604051808303815f87803b15801561046b575f80fd5b505af115801561047d573d5f803e3d5ffd5b505050506040518060400160405280600381526020016205044560ec1b8152509150856104c8576040518060400160405280600681526020016511195b9a595960d21b8152506104e8565b6040518060400160405280600681526020016514185cdcd95960d21b8152505b6040516020016104f89190611c66565b60408051601f19818403018152908290525f546312ff157b60e31b83529092506001600160a01b0316906397f8abd8906105389085908590600401611b8d565b5f604051808303815f87803b15801561054f575f80fd5b505af1158015610561573d5f803e3d5ffd5b50505050895f80516020611dda83398151915287604051610586911515815260200190565b60405180910390a2509398975050505050505050565b5f806105aa612a3042611924565b90505f6105ba620151808361194b565b90505f806105c784611028565b90506105d48388886110cb565b156105de57600191505b60408051808201909152600e81526d1058d8d95cdcc814995c5d595cdd60921b60208201525f61060d8c611128565b8360405160200161061f929190611c84565b60408051601f19818403018152908290525f546312ff157b60e31b83529092506001600160a01b0316906397f8abd89061065f9085908590600401611b8d565b5f604051808303815f87803b158015610676575f80fd5b505af1158015610688573d5f803e3d5ffd5b505050506040518060400160405280600381526020016205049560ec1b81525091506106b38c611128565b8b6106bd8c61124d565b6040516020016106cf93929190611bb1565b60408051601f19818403018152908290525f546312ff157b60e31b83529092506001600160a01b0316906397f8abd89061070f9085908590600401611b8d565b5f604051808303815f87803b158015610726575f80fd5b505af1158015610738573d5f803e3d5ffd5b505050506040518060400160405280600381526020016205052560ec1b81525091506107638a61124d565b898960405160200161077793929190611c0c565b60408051601f19818403018152908290525f546312ff157b60e31b83529092506001600160a01b0316906397f8abd8906107b79085908590600401611b8d565b5f604051808303815f87803b1580156107ce575f80fd5b505af11580156107e0573d5f803e3d5ffd5b505050506040518060400160405280600381526020016205044560ec1b81525091508361082b576040518060400160405280600681526020016511195b9a595960d21b81525061084b565b6040518060400160405280600681526020016514185cdcd95960d21b8152505b60405160200161085b9190611c66565b60408051601f19818403018152908290525f546312ff157b60e31b83529092506001600160a01b0316906397f8abd89061089b9085908590600401611b8d565b5f604051808303815f87803b1580156108b2575f80fd5b505af11580156108c4573d5f803e3d5ffd5b505050508b5f80516020611dda833981519152856040516108e9911515815260200190565b60405180910390a250919a9950505050505050505050565b5f8061090f612a3042611924565b90505f61091f620151808361194b565b600154604051632751ed2760e21b8152600481018790529192505f9182916001600160a01b031690639d47b49c906024015f60405180830381865afa15801561096a573d5f803e3d5ffd5b505050506040513d5f823e601f3d908101601f191682016040526109919190810190611a40565b90505f61099d85611028565b90506109b284836040015184606001516110cb565b156109bc57600192505b60408051808201909152600e81526d1058d8d95cdcc814995c5d595cdd60921b60208201525f6109eb8b611128565b836040516020016109fd929190611ca9565b60408051601f19818403018152908290525f546312ff157b60e31b83529092506001600160a01b0316906397f8abd890610a3d9085908590600401611b8d565b5f604051808303815f87803b158015610a54575f80fd5b505af1158015610a66573d5f803e3d5ffd5b505050506040518060400160405280600381526020016205049560ec1b8152509150610a918b611128565b8a610a9b8b61124d565b604051602001610aad93929190611bb1565b60408051601f19818403018152908290525f546312ff157b60e31b83529092506001600160a01b0316906397f8abd890610aed9085908590600401611b8d565b5f604051808303815f87803b158015610b04575f80fd5b505af1158015610b16573d5f803e3d5ffd5b505050506040518060400160405280600381526020016205052560ec1b8152509150610b45846020015161124d565b84604001518560600151604051602001610b6193929190611c0c565b60408051601f19818403018152908290525f546312ff157b60e31b83529092506001600160a01b0316906397f8abd890610ba19085908590600401611b8d565b5f604051808303815f87803b158015610bb8575f80fd5b505af1158015610bca573d5f803e3d5ffd5b505050506040518060400160405280600381526020016205044560ec1b815250915084610c15576040518060400160405280600681526020016511195b9a595960d21b815250610c35565b6040518060400160405280600681526020016514185cdcd95960d21b8152505b604051602001610c459190611c66565b60408051601f19818403018152908290525f546312ff157b60e31b83529092506001600160a01b0316906397f8abd890610c859085908590600401611b8d565b5f604051808303815f87803b158015610c9c575f80fd5b505af1158015610cae573d5f803e3d5ffd5b505050508a5f80516020611dda83398151915286604051610cd3911515815260200190565b60405180910390a25092955050505050505b9392505050565b5f80610cfa612a3042611924565b90505f610d0682611028565b60408051808201909152600e81526d1058d8d95cdcc814995c5d595cdd60921b60208201529091505f610d388b611128565b83604051602001610d4a929190611cce565b60408051601f19818403018152908290525f546312ff157b60e31b83529092506001600160a01b0316906397f8abd890610d8a9085908590600401611b8d565b5f604051808303815f87803b158015610da1575f80fd5b505af1158015610db3573d5f803e3d5ffd5b505050506040518060400160405280600381526020016205049560ec1b8152509150610dde8b611128565b8a610de88b61124d565b604051602001610dfa93929190611bb1565b60408051601f19818403018152908290525f546312ff157b60e31b83529092506001600160a01b0316906397f8abd890610e3a9085908590600401611b8d565b5f604051808303815f87803b158015610e51575f80fd5b505af1158015610e63573d5f803e3d5ffd5b505050506040518060400160405280600381526020016205052560ec1b8152509150610e8e8961124d565b8888604051602001610ea293929190611c0c565b60408051601f19818403018152908290525f546312ff157b60e31b83529092506001600160a01b0316906397f8abd890610ee29085908590600401611b8d565b5f604051808303815f87803b158015610ef9575f80fd5b505af1158015610f0b573d5f803e3d5ffd5b505050506040518060400160405280600381526020016205044560ec1b815250915085610f56576040518060400160405280600681526020016511195b9a595960d21b815250610f76565b6040518060400160405280600681526020016514185cdcd95960d21b8152505b604051602001610f869190611c66565b60408051601f19818403018152908290525f546312ff157b60e31b83529092506001600160a01b0316906397f8abd890610fc69085908590600401611b8d565b5f604051808303815f87803b158015610fdd575f80fd5b505af1158015610fef573d5f803e3d5ffd5b505060405188151581528892508d91505f80516020611dda8339815191529060200160405180910390a29b9a5050505050505050505050565b60605f6018603c6110398186611cf3565b6110439190611cf3565b61104d919061194b565b90505f603c61105c8186611cf3565b611066919061194b565b90505f611074603c8661194b565b90505f611080846113eb565b90505f61108c846113eb565b90505f611098846113eb565b90508282826040516020016110af93929190611d06565b6040516020818303038152906040529650505050505050919050565b5f806110d684611434565b90505f6110e284611434565b9050808211611104578186101580156110fb5750808611155b92505050610ce5565b81861180156111165750620151808611155b806110fb57508511159150610ce59050565b6060815f0361114e5750506040805180820190915260018152600360fc1b602082015290565b815f5b8115611177578061116181611d3b565b91506111709050600a83611cf3565b9150611151565b5f816001600160401b038111156111905761119061165f565b6040519080825280601f01601f1916602001820160405280156111ba576020820181803683370190505b509050815b8515611244576111d0600182611d53565b90505f6111de600a88611cf3565b6111e990600a611d66565b6111f39088611d53565b6111fe906030611d7d565b90505f8160f81b90508084848151811061121a5761121a611d96565b60200101906001600160f81b03191690815f1a90535061123b600a89611cf3565b975050506111bf565b50949350505050565b6060815f036112735750506040805180820190915260018152600360fc1b602082015290565b5f8083129081611283578361128c565b61128c84611daa565b90505f5b81156112b657806112a081611d3b565b91506112af9050600a83611cf3565b9150611290565b82156112ca57806112c681611d3b565b9150505b5f816001600160401b038111156112e3576112e361165f565b6040519080825280601f01601f19166020018201604052801561130d576020820181803683370190505b509050818461131c5786611325565b61132587611daa565b93505b83156113ad57611339600182611d53565b90505f611347600a86611cf3565b61135290600a611d66565b61135c9086611d53565b611367906030611d7d565b90505f8160f81b90508084848151811061138357611383611d96565b60200101906001600160f81b03191690815f1a9053506113a4600a87611cf3565b95505050611328565b84156113e157602d60f81b825f815181106113ca576113ca611d96565b60200101906001600160f81b03191690815f1a9053505b5095945050505050565b6060600a821015611425576113ff82611128565b60405160200161140f9190611dc4565b6040516020818303038152906040529050919050565b61142e82611128565b92915050565b80515f9082906008146114845760405162461bcd60e51b81526020600482015260136024820152721a5b9d985b1a59081d1a5b5948199bdc9b585d606a1b60448201526064015b60405180910390fd5b5f60308260018151811061149a5761149a611d96565b01602001516114ac919060f81c611d53565b6030835f815181106114c0576114c0611d96565b01602001516114d2919060f81c611d53565b6114dd90600a611d66565b6114e79190611924565b90505f6030836004815181106114ff576114ff611d96565b0160200151611511919060f81c611d53565b60308460038151811061152657611526611d96565b0160200151611538919060f81c611d53565b61154390600a611d66565b61154d9190611924565b90505f60308460078151811061156557611565611d96565b0160200151611577919060f81c611d53565b60308560068151811061158c5761158c611d96565b016020015161159e919060f81c611d53565b6115a990600a611d66565b6115b39190611924565b90506018831080156115c55750603c82105b80156115d15750603c81105b6116125760405162461bcd60e51b8152602060048201526012602482015271496e76616c69642074696d652076616c756560701b604482015260640161147b565b8061161e83603c611d66565b61162a85610e10611d66565b6116349190611924565b61163e9190611924565b9695505050505050565b5f60208284031215611658575f80fd5b5035919050565b634e487b7160e01b5f52604160045260245ffd5b604051608081016001600160401b03811182821017156116955761169561165f565b60405290565b60405160a081016001600160401b03811182821017156116955761169561165f565b604051601f8201601f191681016001600160401b03811182821017156116e5576116e561165f565b604052919050565b5f6001600160401b038211156117055761170561165f565b50601f01601f191660200190565b5f82601f830112611722575f80fd5b8135611735611730826116ed565b6116bd565b818152846020838601011115611749575f80fd5b816020850160208301375f918101602001919091529392505050565b5f805f805f60a08688031215611779575f80fd5b8535945060208601356001600160401b03811115611795575f80fd5b6117a188828901611713565b9450506040860135925060608601356001600160401b038111156117c3575f80fd5b6117cf88828901611713565b92505060808601356001600160401b038111156117ea575f80fd5b6117f688828901611713565b9150509295509295909350565b5f805f60608486031215611815575f80fd5b8335925060208401356001600160401b03811115611831575f80fd5b61183d86828701611713565b93969395505050506040919091013590565b801515811461185c575f80fd5b50565b5f805f805f8060c08789031215611874575f80fd5b8635955060208701356001600160401b03811115611890575f80fd5b61189c89828a01611713565b9550506040870135935060608701356001600160401b038111156118be575f80fd5b6118ca89828a01611713565b93505060808701356001600160401b038111156118e5575f80fd5b6118f189828a01611713565b92505060a08701356119028161184f565b809150509295509295509295565b634e487b7160e01b5f52601160045260245ffd5b8082018082111561142e5761142e611910565b634e487b7160e01b5f52601260045260245ffd5b5f8261195957611959611937565b500690565b5f82601f83011261196d575f80fd5b815161197b611730826116ed565b81815284602083860101111561198f575f80fd5b8160208501602083015e5f918101602001919091529392505050565b5f602082840312156119bb575f80fd5b81516001600160401b038111156119d0575f80fd5b8201608081850312156119e1575f80fd5b6119e9611673565b8151815260208201516001600160401b03811115611a05575f80fd5b611a118682850161195e565b6020830152506040828101519082015260609091015190611a318261184f565b60608101919091529392505050565b5f60208284031215611a50575f80fd5b81516001600160401b03811115611a65575f80fd5b820160a08185031215611a76575f80fd5b611a7e61169b565b815181526020808301519082015260408201516001600160401b03811115611aa4575f80fd5b611ab08682850161195e565b60408301525060608201516001600160401b03811115611ace575f80fd5b611ada8682850161195e565b60608301525060808201519150611af08261184f565b60808101919091529392505050565b5f81518060208401855e5f93019283525090919050565b7002632bb32b61d10199610223937b7329d1607d1b81525f611b3b6011830185611aff565b67016102a34b6b29d160c51b8152611b566008820185611aff565b95945050505050565b5f81518084528060208401602086015e5f602082860101526020601f19601f83011685010191505092915050565b604081525f611b9f6040830185611b5f565b8281036020840152611b568185611b5f565b690223937b7329024b21d160b51b81525f611bcf600a830186611aff565b6c0161026b7b232b62a3cb8329d1609d1b8152611bef600d820186611aff565b905067016102d37b7329d160c51b815261163e6008820185611aff565b6502d37b7329d160d51b81525f611c266006830186611aff565b6c0161029ba30b93a2a34b6b29d1609d1b8152611c46600d820186611aff565b90506a0161022b7322a34b6b29d160ad1b815261163e600b820185611aff565b6902232b1b4b9b4b7b71d160b51b81525f610ce5600a830184611aff565b7002632bb32b61d10189610223937b7329d1607d1b81525f611b3b6011830185611aff565b7002632bb32b61d10191610223937b7329d1607d1b81525f611b3b6011830185611aff565b7002632bb32b61d10181610223937b7329d1607d1b81525f611b3b6011830185611aff565b5f82611d0157611d01611937565b500490565b5f611d118286611aff565b601d60f91b8152611d256001820186611aff565b9050601d60f91b815261163e6001820185611aff565b5f60018201611d4c57611d4c611910565b5060010190565b8181038181111561142e5761142e611910565b808202811582820484141761142e5761142e611910565b60ff818116838216019081111561142e5761142e611910565b634e487b7160e01b5f52603260045260245ffd5b5f600160ff1b8201611dbe57611dbe611910565b505f0390565b600360fc1b81525f610ce56001830184611aff56feb79696d005aad537e335b7484a22a2a95e6210165a0471175c06351d2e79ae9da2646970667358221220ffac622c905abeaf2e85ade7ca5f2ea791700660e8cd86fd674a7f4a712d49d664736f6c634300081a0033",
  "linkReferences": {},
  "deployedLinkReferences": {},
  "immutableReferences": {},
  "inputSourceName": "project/contracts/PDP.sol",
  "buildInfoId": "solc-0_8_26-9beefa37a4404a4276d72c8f47b91d4eb77784cf"
}