{
  "_format": "hh3-artifact-1",
  "contractName": "AttributeContract",
  "sourceName": "contracts/AttributeContract.sol",
  "abi": [
    {
      "anonymous": false,
      "inputs": [
        {
          "indexed": true,
          "internalType": "uint256",
          "name": "id",
          "type": "uint256"
        },
        {
          "indexed": false,
          "internalType": "string",
          "name": "name",
          "type": "string"
        },
        {
          "indexed": false,
          "internalType": "uint256[]",
          "name": "value",
          "type": "uint256[]"
        }
      ],
      "name": "AttributeCreated",
      "type": "event"
    },
    {
      "anonymous": false,
      "inputs": [
        {
          "indexed": true,
          "internalType": "uint256",
          "name": "id",
          "type": "uint256"
        }
      ],
      "name": "AttributeDeleted",
      "type": "event"
    },
    {
      "anonymous": false,
      "inputs": [
        {
          "indexed": true,
          "internalType": "uint256",
          "name": "id",
          "type": "uint256"
        },
        {
          "indexed": false,
          "internalType": "string",
          "name": "name",
          "type": "string"
        },
        {
          "indexed": false,
          "internalType": "uint256[]",
          "name": "value",
          "type": "uint256[]"
        }
      ],
      "name": "AttributeUpdated",
      "type": "event"
    },
    {
      "inputs": [
        {
          "internalType": "uint256",
          "name": "",
          "type": "uint256"
        }
      ],
      "name": "attributes",
      "outputs": [
        {
          "internalType": "uint256",
          "name": "id",
          "type": "uint256"
        },
        {
          "internalType": "string",
          "name": "name",
          "type": "string"
        },
        {
          "internalType": "bool",
          "name": "exists",
          "type": "bool"
        }
      ],
      "stateMutability": "view",
      "type": "function"
    },
    {
      "inputs": [
        {
          "internalType": "string",
          "name": "_name",
          "type": "string"
        },
        {
          "internalType": "uint256[]",
          "name": "_value",
          "type": "uint256[]"
        }
      ],
      "name": "createAttribute",
      "outputs": [],
      "stateMutability": "nonpayable",
      "type": "function"
    },
    {
      "inputs": [
        {
          "internalType": "uint256",
          "name": "_id",
          "type": "uint256"
        }
      ],
      "name": "deleteAttribute",
      "outputs": [],
      "stateMutability": "nonpayable",
      "type": "function"
    },
    {
      "inputs": [
        {
          "internalType": "uint256",
          "name": "_id",
          "type": "uint256"
        }
      ],
      "name": "getAttribute",
      "outputs": [
        {
          "components": [
            {
              "internalType": "uint256",
              "name": "id",
              "type": "uint256"
            },
            {
              "internalType": "string",
              "name": "name",
              "type": "string"
            },
            {
              "internalType": "uint256[]",
              "name": "value",
              "type": "uint256[]"
            },
            {
              "internalType": "bool",
              "name": "exists",
              "type": "bool"
            }
          ],
          "internalType": "struct AttributeContract.Attribute",
          "name": "",
          "type": "tuple"
        }
      ],
      "stateMutability": "view",
      "type": "function"
    },
    {
      "inputs": [],
      "name": "getAttributes",
      "outputs": [
        {
          "components": [
            {
              "internalType": "uint256",
              "name": "id",
              "type": "uint256"
            },
            {
              "internalType": "string",
              "name": "name",
              "type": "string"
            },
            {
              "internalType": "uint256[]",
              "name": "value",
              "type": "uint256[]"
            },
            {
              "internalType": "bool",
              "name": "exists",
              "type": "bool"
            }
          ],
          "internalType": "struct AttributeContract.Attribute[]",
          "name": "",
          "type": "tuple[]"
        }
      ],
      "stateMutability": "view",
      "type": "function"
    },
    {
      "inputs": [
        {
          "internalType": "string",
          "name": "_name",
          "type": "string"
        }
      ],
      "name": "getAttributesByName",
      "outputs": [
        {
          "components": [
            {
              "internalType": "uint256",
              "name": "id",
              "type": "uint256"
            },
            {
              "internalType": "string",
              "name": "name",
              "type": "string"
            },
            {
              "internalType": "uint256[]",
              "name": "value",
              "type": "uint256[]"
            },
            {
              "internalType": "bool",
              "name": "exists",
              "type": "bool"
            }
          ],
          "internalType": "struct AttributeContract.Attribute[]",
          "name": "",
          "type": "tuple[]"
        }
      ],
      "stateMutability": "view",
      "type": "function"
    },
    {
      "inputs": [],
      "name": "nextId",
      "outputs": [
        {
          "internalType": "uint256",
          "name": "",
          "type": "uint256"
        }
      ],
      "stateMutability": "view",
      "type": "function"
    },
    {
      "inputs": [
        {
          "internalType": "uint256",
          "name": "_id",
          "type": "uint256"
        },
        {
          "internalType": "string",
          "name": "_name",
          "type": "string"
        },
        {
          "internalType": "uint256[]",
          "name": "_value",
          "type": "uint256[]"
        }
      ],
      "name": "updateAttribute",
      "outputs": [],
      "stateMutability": "nonpayable",
      "type": "function"
    }
  ],
  "bytecode": "0x6080604052348015600e575f80fd5b506113638061001c5f395ff3fe608060405234801561000f575f80fd5b5060043610610085575f3560e01c8063493fe80f11610058578063493fe80f146100e257806361b8ce8c146101025780637238b41f14610119578063d05dcc6a1461012c575f80fd5b806306516a4a14610089578063152583de146100b25780631736a62b146100ba5780632822800c146100cf575b5f80fd5b61009c610097366004610e15565b61014e565b6040516100a99190610f02565b60405180910390f35b61009c61052b565b6100cd6100c8366004610fe5565b610797565b005b6100cd6100dd366004611052565b61087a565b6100f56100f03660046110b7565b610997565b6040516100a991906110ce565b61010b60015481565b6040519081526020016100a9565b6100cd6101273660046110b7565b610b42565b61013f61013a3660046110b7565b610bf3565b6040516100a9939291906110e7565b60605f805b5f54811015610257575f818154811061016e5761016e611111565b5f91825260209091206003600490920201015460ff16801561023c575061023c5f82815481106101a0576101a0611111565b905f5260205f20906004020160010180546101ba90611125565b80601f01602080910402602001604051908101604052809291908181526020018280546101e690611125565b80156102315780601f1061020857610100808354040283529160200191610231565b820191905f5260205f20905b81548152906001019060200180831161021457829003601f168201915b505050505085610caf565b1561024f578161024b8161115d565b9250505b600101610153565b505f8167ffffffffffffffff81111561027257610272610d64565b6040519080825280602002602001820160405280156102ce57816020015b6102bb60405180608001604052805f815260200160608152602001606081526020015f151581525090565b8152602001906001900390816102905790505b5090505f805b5f54811015610521575f81815481106102ef576102ef611111565b5f91825260209091206003600490920201015460ff1680156103bd57506103bd5f828154811061032157610321611111565b905f5260205f209060040201600101805461033b90611125565b80601f016020809104026020016040519081016040528092919081815260200182805461036790611125565b80156103b25780601f10610389576101008083540402835291602001916103b2565b820191905f5260205f20905b81548152906001019060200180831161039557829003601f168201915b505050505087610caf565b15610519575f81815481106103d4576103d4611111565b905f5260205f2090600402016040518060800160405290815f820154815260200160018201805461040490611125565b80601f016020809104026020016040519081016040528092919081815260200182805461043090611125565b801561047b5780601f106104525761010080835404028352916020019161047b565b820191905f5260205f20905b81548152906001019060200180831161045e57829003601f168201915b50505050508152602001600282018054806020026020016040519081016040528092919081815260200182805480156104d157602002820191905f5260205f20905b8154815260200190600101908083116104bd575b50505091835250506003919091015460ff16151560209091015283518490849081106104ff576104ff611111565b602002602001018190525081806105159061115d565b9250505b6001016102d4565b5090949350505050565b60605f805b5f5481101561057c575f818154811061054b5761054b611111565b5f91825260209091206003600490920201015460ff161561057457816105708161115d565b9250505b600101610530565b505f8167ffffffffffffffff81111561059757610597610d64565b6040519080825280602002602001820160405280156105f357816020015b6105e060405180608001604052805f815260200160608152602001606081526020015f151581525090565b8152602001906001900390816105b55790505b5090505f805b5f5481101561078e575f818154811061061457610614611111565b5f91825260209091206003600490920201015460ff1615610786575f818154811061064157610641611111565b905f5260205f2090600402016040518060800160405290815f820154815260200160018201805461067190611125565b80601f016020809104026020016040519081016040528092919081815260200182805461069d90611125565b80156106e85780601f106106bf576101008083540402835291602001916106e8565b820191905f5260205f20905b8154815290600101906020018083116106cb57829003601f168201915b505050505081526020016002820180548060200260200160405190810160405280929190818152602001828054801561073e57602002820191905f5260205f20905b81548152602001906001019080831161072a575b50505091835250506003919091015460ff161515602090910152835184908490811061076c5761076c611111565b602002602001018190525081806107829061115d565b9250505b6001016105f9565b50909392505050565b600154831080156107cc57505f83815481106107b5576107b5611111565b5f91825260209091206003600490920201015460ff165b6107f15760405162461bcd60e51b81526004016107e890611181565b60405180910390fd5b5f80848154811061080457610804611111565b905f5260205f2090600402019050828160010190816108239190611204565b5081516108399060028301906020850190610d07565b50837f8f26e9a323213025e76e7c58dbf6338a9c36708b0f933b7e5babc20acca4e8d1848460405161086c9291906112bf565b60405180910390a250505050565b6040805160808101825260018054825260208201858152928201849052606082018190525f805491820181558052815160049091027f290decd9548b62a8d60345a988386fc84ba6bc95484008f6362f93160ef3e56381019182559251919290917f290decd9548b62a8d60345a988386fc84ba6bc95484008f6362f93160ef3e5649091019061090a9082611204565b5060408201518051610926916002840191602090910190610d07565b50606091909101516003909101805460ff19169115159190911790556001546040517f92ff6eabb2f26553137551f9eaac5f9e399114f11d71898144a4e7e71f8689f19061097790859085906112bf565b60405180910390a260018054905f61098e8361115d565b91905055505050565b6109c260405180608001604052805f815260200160608152602001606081526020015f151581525090565b600154821080156109f757505f82815481106109e0576109e0611111565b5f91825260209091206003600490920201015460ff165b610a135760405162461bcd60e51b81526004016107e890611181565b5f8281548110610a2557610a25611111565b905f5260205f2090600402016040518060800160405290815f8201548152602001600182018054610a5590611125565b80601f0160208091040260200160405190810160405280929190818152602001828054610a8190611125565b8015610acc5780601f10610aa357610100808354040283529160200191610acc565b820191905f5260205f20905b815481529060010190602001808311610aaf57829003601f168201915b5050505050815260200160028201805480602002602001604051908101604052809291908181526020018280548015610b2257602002820191905f5260205f20905b815481526020019060010190808311610b0e575b50505091835250506003919091015460ff16151560209091015292915050565b60015481108015610b7757505f8181548110610b6057610b60611111565b5f91825260209091206003600490920201015460ff165b610b935760405162461bcd60e51b81526004016107e890611181565b5f808281548110610ba657610ba6611111565b5f9182526020822060049190910201600301805460ff19169215159290921790915560405182917ffe96137d7877697f141204379bad0e6617ff7023d7608f9db3be956d7ceef71191a250565b5f8181548110610c01575f80fd5b5f9182526020909120600490910201805460018201805491935090610c2590611125565b80601f0160208091040260200160405190810160405280929190818152602001828054610c5190611125565b8015610c9c5780601f10610c7357610100808354040283529160200191610c9c565b820191905f5260205f20905b815481529060010190602001808311610c7f57829003601f168201915b5050506003909301549192505060ff1683565b5f81604051602001610cc19190611317565b6040516020818303038152906040528051906020012083604051602001610ce89190611317565b6040516020818303038152906040528051906020012014905092915050565b828054828255905f5260205f20908101928215610d40579160200282015b82811115610d40578251825591602001919060010190610d25565b50610d4c929150610d50565b5090565b5b80821115610d4c575f8155600101610d51565b634e487b7160e01b5f52604160045260245ffd5b604051601f8201601f1916810167ffffffffffffffff81118282101715610da157610da1610d64565b604052919050565b5f82601f830112610db8575f80fd5b813567ffffffffffffffff811115610dd257610dd2610d64565b610de5601f8201601f1916602001610d78565b818152846020838601011115610df9575f80fd5b816020850160208301375f918101602001919091529392505050565b5f60208284031215610e25575f80fd5b813567ffffffffffffffff811115610e3b575f80fd5b610e4784828501610da9565b949350505050565b5f81518084528060208401602086015e5f602082860101526020601f19601f83011685010191505092915050565b805182525f602082015160806020850152610e9b6080850182610e4f565b9050604083015184820360408601528181518084526020840191506020830193505f92505b80831015610ee35783518252602082019150602084019350600183019250610ec0565b5060608501519250610ef9606087018415159052565b95945050505050565b5f602082016020835280845180835260408501915060408160051b8601019250602086015f5b82811015610f5957603f19878603018452610f44858351610e7d565b94506020938401939190910190600101610f28565b50929695505050505050565b5f82601f830112610f74575f80fd5b813567ffffffffffffffff811115610f8e57610f8e610d64565b8060051b610f9e60208201610d78565b91825260208185018101929081019086841115610fb9575f80fd5b6020860192505b83831015610fdb578235825260209283019290910190610fc0565b9695505050505050565b5f805f60608486031215610ff7575f80fd5b83359250602084013567ffffffffffffffff811115611014575f80fd5b61102086828701610da9565b925050604084013567ffffffffffffffff81111561103c575f80fd5b61104886828701610f65565b9150509250925092565b5f8060408385031215611063575f80fd5b823567ffffffffffffffff811115611079575f80fd5b61108585828601610da9565b925050602083013567ffffffffffffffff8111156110a1575f80fd5b6110ad85828601610f65565b9150509250929050565b5f602082840312156110c7575f80fd5b5035919050565b602081525f6110e06020830184610e7d565b9392505050565b838152606060208201525f6110ff6060830185610e4f565b90508215156040830152949350505050565b634e487b7160e01b5f52603260045260245ffd5b600181811c9082168061113957607f821691505b60208210810361115757634e487b7160e01b5f52602260045260245ffd5b50919050565b5f6001820161117a57634e487b7160e01b5f52601160045260245ffd5b5060010190565b60208082526018908201527f41747472696275746520646f6573206e6f742065786973740000000000000000604082015260600190565b601f8211156111ff57805f5260205f20601f840160051c810160208510156111dd5750805b601f840160051c820191505b818110156111fc575f81556001016111e9565b50505b505050565b815167ffffffffffffffff81111561121e5761121e610d64565b6112328161122c8454611125565b846111b8565b6020601f821160018114611264575f831561124d5750848201515b5f19600385901b1c1916600184901b1784556111fc565b5f84815260208120601f198516915b828110156112935787850151825560209485019460019092019101611273565b50848210156112b057868401515f19600387901b60f8161c191681555b50505050600190811b01905550565b604081525f6112d16040830185610e4f565b82810360208401528084518083526020830191506020860192505f5b8181101561130b5783518352602093840193909201916001016112ed565b50909695505050505050565b5f82518060208501845e5f92019182525091905056fea26469706673582212204bf75f4577ded142d1840e22f3a0417f706d8c65ad39b56702ece50c1e540afb64736f6c634300081a0033",
  "linkReferences": {},
  "deployedLinkReferences": {},
  "immutableReferences": {},
  "inputSourceName": "project/contracts/AttributeContract.sol",
  "buildInfoId": "solc-0_8_26-9beefa37a4404a4276d72c8f47b91d4eb77784cf"
}